:020000040800F2
:10000000200A0020A5010008672300087B1F0008C4
:100010006523000831090008212D000800000000B8
:10002000000000000000000000000000B9280008E7
:10003000330900080000000031240008BB28000834
:10004000BF010008BF010008BF010008BF01000890
:10005000BF010008BF010008BF010008BF01000880
:10006000BF010008BF010008BF010008BF01000870
:10007000BF010008BF010008BF010008BF01000860
:10008000BF010008BF010008BF010008BF01000850
:10009000BF010008BF010008BF010008BF01000840
:1000A000BF010008BF010008BF010008BF01000830
:1000B000BF01000800000000000000007D1F0008D4
:1000C000BF0100080000000000000000BF010008A0
:1000D00000000000BF010008BF0100080000000090
:1000E000BF010008BF010008000000000000000080
:1000F0000000000000000000000000000000000000
:10010000000000000000000000000000BF01000827
:100110000000000000000000BF010008BF0100084F
:10012000BF010008BF010008BF010008BF010008AF
:10013000BF010008000000000000000000000000F7
:10014000BF010008BF010008BF010008BF0100088F
:10015000BF010008BF010008BF010008BF0100087F
:10016000BF010008BF010008BF0100080000000037
:10017000BF010008BF0100080000000000000000EF
:10018000BF010008BF010008BF010008DFF810D060
:1001900000F0BCFB00480047B5370008AFF3008013
:1001A000200A00200648804706480047FEE7FEE791
:1001B000FEE7FEE7FEE7FEE7FEE7FEE7FEE7FEE717
:1001C0003D2900088D0100082DE9F05F054600205B
:1001D00092469B4688460646814640241BE02846B8
:1001E00041464746224600F0EAF953465A46C01AAD
:1001F000914110D311461846224600F0D1F92D1A2C
:1002000067EB01084F4622460120002100F0C8F9A3
:1002100017EB00094E41201EA4F10104DFDC484623
:1002200031462A46434600F000B830BCBDE8C09FC6
:10023000D2B201E000F8012B491EFBD27047002228
:10024000F6E710B513460A4604461946FFF7F0FFD5
:10025000204610BD2DE9FE4F804681EA0300C00F05
:100260000C46009021F0004123F00045B8EB02005D
:10027000A94105D24046214690461C460B460246FF
:1002800023F00040104347D0270DC7F30A00C3F303
:100290000A510290401A019040286BDAC3F3130010
:1002A00040F4801B0098924620B10023D2EB030A51
:1002B00063EB0B0B01985946C0F14002504600F029
:1002C0006FF906460D4650465946019A00F087F9E7
:1002D00010EB08006141002487EA115284EAE773B9
:1002E0001A4340D0009A62B3019A012A4FEA07529A
:1002F00015DC001B61EB02014FF0004202EA0752DD
:10030000CDE90042001C41F5801132462B4600F039
:10031000BEF903B000F045B840462146F9E7001B9E
:1003200061EB0201001C41F5801300185B412018AD
:10033000A2F5001747EB030140EAD570B6196D41ED
:1003400011E06D084FEA360645EAC0754FEA0752DC
:10035000001B61EB0201001C41F5801149084FEAC6
:1003600030000019514132462B4603B000F01CB852
:1003700000F07EB90098012240000023D0EB020279
:1003800063EBE073009821464FEAE074B8EB00009D
:1003900061EB0401E9E783F000435BE781F0004192
:1003A00058E730BCBDE8C08F30BCBDE8C04FFFF798
:1003B000DFBF2DE9FE4F81EA030404F0004421F081
:1003C000004100944FF0000B23F0004350EA010479
:1003D0005ED052EA03045BD0C3F30A54C1F30A555A
:1003E0002C44A4F2F3340194A0FB0254C1F3130192
:1003F00041F48011C3F3130343F4801301FB02445F
:1004000000FB034E840A970A44EA815447EA835763
:10041000A4FB076802958D0A05FB07854FEA932C1C
:1004200004FB0C542705029D4FEA065847EA16378D
:10043000B5EB08056EEB070C870E920E47EA8117A5
:1004400042EA8312A7FB0201B6EB0B0164EB000446
:100450002B0D43EA0C335E1844EB1C50DA46514630
:10046000E7FB0201C5F313044FEA0B3343EA1453CD
:100470004FEA0432019C43EA0603A4F10C040294FF
:10048000009CCDE900B400F002F903B000F003B81D
:1004900000200146F9E730BCBDE8C08F0EB5C10FA2
:1004A00080EAE0700844CA07002140F233438DE837
:1004B0000E000A460B4600F0EAF803B000BD0EB588
:1004C00040F2334102910021CDE900110A460B466A
:1004D00000F0DDF803B000BD70B5C1F30A5201F0C1
:1004E00000450024C1F3130140F2FF3341F48011B1
:1004F0009A4201DA002070BD40F233439A42A2F2E0
:10050000334203DC524200F05AF800E090402C43A2
:10051000F1D0404270BD00F0004230F000400AD0FF
:10052000C10D01F56071C0F3160042EA0151C20825
:1005300040071143704700200146704701F0004317
:1005400030B421F0004150EA010206D00A0DA2F5B4
:100550006072C1F31301002A02DC30BC0020704736
:10056000440F44EAC104C100E01830BC00EBC250A3
:1005700000F047B830B50B46014600202022012488
:1005800009E021FA02F59D4205D303FA02F5491B61
:1005900004FA02F52844151EA2F10102F1DC30BD77
:1005A000202A04DB203A00FA02F100207047914033
:1005B000C2F1200320FA03F3194390407047202A28
:1005C00004DB203A21FA02F00021704721FA02F3FD
:1005D000D040C2F120029140084319467047202ABA
:1005E00006DBCB17203A41FA02F043EAE07306E05B
:1005F00041FA02F3D040C2F120029140084319466B
:1006000070470029A8BF7047401C490008BF20F070
:100610000100704710B4B0FA80FC00FA0CF050EA08
:10062000010404BF10BC704749B1CCF1200421FA89
:1006300004F411FA0CF118BF012121430843A3EB84
:100640000C01CB1D4FEA00614FEA102042BF002091
:1006500010BC704700EBC35010440029A4BF10BC6D
:100660007047401C490008BF20F0010010BC7047D3
:1006700010B5141E73F1000408DA401C41F10001AA
:1006800092185B411A4301D120F0010010BD2DE901
:10069000F04D92469B4611B1B1FA81F202E0B0FAF8
:1006A00080F220329046FFF77BFF04460F4640EA77
:1006B0000A0041EA0B0153465A46084313D011463B
:1006C00053EA010019D0C8F140025046FFF777FF06
:1006D00005460E46504659464246FFF761FF08431D
:1006E00005D0012004E020463946BDE8F08D002009
:1006F000054346EAE0762C4337430A986305E40A4B
:10070000A0EB08000022FD0A44EA47540A3002D553
:1007100000200146E9E7010510196941DDE90845B6
:1007200000196941BDE8F04DA2E72DE9F04D81EADD
:10073000030404F0004B21F0004514464FF0000A7A
:1007400023F0004150EA050220D054EA01021DD0F6
:10075000C5F30A570246C5F31303C1F31300C1F3EF
:100760000A5640F4801543F48013A7EB0608101BCB
:10077000D64608F2FD3873EB050002D308F10108F4
:1007800001E092185B41B8F1000F03DA0020014646
:10079000BDE8F08D00204FF48011064684460EE03F
:1007A000171B73EB050705D3121B63EB0503064309
:1007B0004CEA010C49084FEA300092185B4150EABC
:1007C0000107EDD152EA030012D082EA040083EA65
:1007D0000501084305D0101BAB4106D201220023BE
:1007E00006E000224FF0004302E06FF001025310D8
:1007F0001AEB06004CEB085110EB0A0041EB0B0121
:10080000BDE8F04DFFF734BF2DE9F04D00231A4647
:100810001B1A8A4103DB00200146BDE8F08DC1F3BD
:100820000A52C1F3130141F480154FF0000BD107B8
:1008300002D100186D41521E0027044640F2FF11FC
:10084000384601EB620A3E468046024600204FF4DD
:100850008011FFF7B4FEC2197141BB1846EB0100CD
:10086000B4EB030C75EB000C04D3E41A65EB000544
:1008700017460E46241908F101006D4180463428C0
:10088000E3DDF91946EB0600091BA84103D24FF03E
:10089000FF32134601E0002213461BEB070046EB34
:1008A0000A51BDE8F04DFFF7E3BEC1F30A52C1F3B0
:1008B000130140F2FF3341F480119A4202DA002022
:1008C0000146704740F233439A42A2F2334202DCBF
:1008D0005242FFF774BEFFF763BE000030B5041E3E
:1008E00071F1000404DB4FF00044404264EB01016D
:1008F000141E73F1000405DB1C464FF00043524206
:1009000063EB0403994208BF904230BD064C074D8B
:1009100006E0E06840F0010394E8070098471034CF
:10092000AC42F6D3FFF736FC104400083044000810
:10093000FEE7704770B5044600F0ECF80546601C11
:1009400002D004480078044400F0E4F8401BA042C0
:10095000FAD370BD7C0000202DE9FC4FDFF880A1A8
:10096000002301250AF1040B03244FF00F0C0BF1B7
:10097000040EAEE005FA03F632406FD04F68012F47
:1009800005D0022F03D0112F01D0122F17D1D0F88C
:1009900008905F0004FA07F829EA08090097D1F8DF
:1009A0000C8008FA07F848EA0908C0F80880476888
:1009B000B7430E79C6F300169E403E434660C668B4
:1009C0004FEA430804FA08F7BE4301978F6807FA15
:1009D00008F73743C7604E68022E01D0122E13D19C
:1009E000DE0800EB86060096366A5F07FF0E0CFAFB
:1009F00007F926EA0906D1F8109009FA07F949EA39
:100A00000609009EC6F820900768019EB7430E793C
:100A100006F0030606FA08F63E4306604E68F60046
:100A200056D5304E376E47F001073766366E23F0E5
:100A3000030706F0010600962B4E3E44B146B66809
:100A40009F074FEA17780CFA08F7BE43B0F1904FB2
:100A500005D0264FB84204D1012708E038E000272E
:100A600005E0234FB84201D1022700E0072707FA2B
:100A700008F73743C9F80870DAF800605746D1F82C
:100A8000048096435FEAC83800D516433E60DBF821
:100A900000605F46D1F8048096435FEA883800D54D
:100AA00016433E60DEF800607746D1F80480964336
:100AB0005FEAC82800D516433E60094F0C373E68F0
:100AC000D1F8048096435FEA882800D516433E603B
:100AD0005B1C0A6832FA03F67FF44CAF00F00AB8E8
:100AE00000040140001002400000014000040048E2
:100AF000000800481CBCBDE8E08F426921EA0203FF
:100B00000A4043EA0241816170470AB1816170473E
:100B10008162704701488068704700007C000020B7
:100B200090F84120202A24D190F84020012A20D09A
:100B3000012280F84020242280F8412002681368B6
:100B400023F0010313600268136823F480531360D9
:100B5000026813680B43136001680A6842F00102DF
:100B60000A60202180F84110002180F840100846DA
:100B700070470220704790F84120202A22D190F837
:100B80004020012A1ED0012280F84020242280F833
:100B900041200268136823F00103136002681368A0
:100BA00023F4706343EA0121116001680A6842F08E
:100BB00001020A60202180F84110002180F84010D5
:100BC0000846704702207047026891691268436BBB
:100BD000002B00D01847704770B5040004D094F87B
:100BE0004100002510B106E0012070BD84F840509E
:100BF000204600F0C5FA242084F8410020680168EE
:100C000021F0010101606068216820F070600861D6
:100C10002068816821F400418160E0680128A068B3
:100C200007D040F4044021688860E068022803D0BF
:100C300006E040F40040F6E721684FF400604860A9
:100C400020684168114A114341602068C16821F45D
:100C50000041C160D4E904010843A16940EA0120D0
:100C60002168C860D4E9070108432168086020684A
:100C7000016841F0010101606564202084F84100B1
:100C8000256384F84250002070BD000000800002FF
:100C90002DE9FC4700260446019690F841001F46C6
:100CA0009246894620287ED120688069C04300048E
:100CB00079D594F84000012875D0012084F84000CF
:100CC000242084F8410066644FF02008E068012881
:100CD00009D029F4544040F4205021684860FFF7BF
:100CE00019FF05460DE0314949EA01003049084045
:100CF000F3E7781C05D0FFF70DFF401BB84219D869
:100D0000C7B1216888698969C0F34010C1F3001137
:100D10000843EED0206880693B46C043C0064FF0D0
:100D200000024FF020012046009517D501F0C8F9C8
:100D300068BB09E084F8418054F8440F40F020007B
:100D400044F80409267022E02168C1F81C8084F868
:100D5000418084F84060002000F02CB801F0B0F928
:100D6000A8B921681020C8612168C1F81C800198C9
:100D7000504512D12068416841F4804141603B46B2
:100D8000002220212046009501F09AF910B101209F
:100D9000E2E708E02168C1F81C800198401C01903E
:100DA000504593D3C6E70220D6E70000002000029A
:100DB000FF2300020CBCBDE8F08700002DE9F84FCE
:100DC000044690F84100DDF828A01F4690468B4667
:100DD00020287ED194F8400001287AD0012084F8A0
:100DE0004000FFF797FE0646012200901923D10329
:100DF000204601F065F9E0BB222084F84100102074
:100E000084F8420000256564C4F824806785656322
:100E1000618D3148FF274FF080784FF00079FF292E
:100E200003D927853A46009039E0618D21850090ED
:100E30003AE05946204601F02DF913E001F06CF933
:100E4000B8B92068406A616A0870606A401C6062D4
:100E5000208D401E80B22085618D491E6185618D87
:100E600001B168B1608D3246002851462046E5D177
:100E700000E002E001F092F9D0B1012000F030B8BA
:100E80005346002280212046009601F019F90028DF
:100E9000F3D1608DFF2804D927853A460095434653
:100EA000C7E7608D2085009594F828204B46C0E761
:100EB00021682020C86121684A68084B1A404A60AE
:100EC00084F8410084F8425084F840500020D5E76F
:100ED000FFE70220D2E700000024008000E800FEC7
:100EE00018BCBDE8E08F00002DE9F84F044690F8EB
:100EF0004100DDF828A01F4690468B4620287ED171
:100F000094F8400001287AD0012084F84000FFF7CF
:100F100001FE0646012200901923D103204601F06C
:100F2000CFF8E0BB212084F84100102084F8420073
:100F300000256564C4F8248067856563618D314848
:100F4000FF274FF080784FF00079FF2903D92785DC
:100F50003A46009039E0618D218500903AE059468B
:100F6000204601F097F813E001F03EF9B8B9606A45
:100F7000216800788862606A401C6062608D401E53
:100F80006085208D401E80B22085618D01B168B1E1
:100F9000608D3246002851462046E5D100E002E04F
:100FA00001F0FCF8D0B1012000F030B85346002227
:100FB00080212046009601F083F80028F3D1608D4F
:100FC000FF2804D927853A4600954346C7E7608D38
:100FD0002085009594F828204B46C0E72168202002
:100FE000C86121684A68084B1A404A6084F8410089
:100FF00084F8425084F840500020D5E7FFE70220F3
:10100000D2E700000020008000E800FE18BCBDE828
:10101000E08F00002DE9FF4F83B00446DDE9108723
:1010200090F84100DDF848909A469346202874D104
:101030005FEA080014D09FB194F8400001286CD0FA
:10104000012084F84000FFF765FD0646012200906C
:101050001923D103204601F033F8002871D103E0B1
:101060004FF4007060646CE0222084F8410040205E
:1010700084F8420000256564C4F8248067856563B0
:10108000CDE9009653465A462046049900F0D0FF19
:1010900010B184F8405054E0618D3548FF274FF07F
:1010A00080784FF0007AFF2904D927853A464346D5
:1010B000009005E0618D2185009094F8282053462A
:1010C0002046049900F0E6FF4B460022042120460A
:1010D000009600F0F5FFA0BB2068406A616A0870C6
:1010E000606A401C6062208D401E81B22185608D47
:1010F000401E6085608DD8B1D1B94B460022802159
:101100002046009600F0DCFFD8B9608DFF2805D995
:1011100027853A464346009506E026E0608D208507
:10112000009594F8282053462046049900F0B2FF19
:10113000608D0028C8D132464946204601F02EF87D
:1011400018B1012007B000F017B821682020C8614D
:1011500021684A68074B1A404A6084F8410084F8C5
:10116000425084F840500020ECE70220EAE70000FB
:101170000024008000E800FE30BCBDE8C08F000005
:1011800010B586B0044614216846FFF758F8174991
:101190002068884228D1164CE06C40F00100E064E1
:1011A000E06C694600F0010005904FF4C0600090CB
:1011B000122001900120029003200390042004904B
:1011C0004FF09040FFF7C8FBA06D40F40010A06501
:1011D000A06D002200F40010059011461F2000F0C1
:1011E00067F81F2000F056F806B010BD005400400C
:1011F0000010024002488168027811448160704703
:101200007C00002010B50024032000F071F80020BD
:1012100000F008F808B1012401E000F025F82046AC
:1012200010BD000070B50E4E05460024307898B110
:101230004FF47A71B1FBF0F00A490968B1FBF0F0A4
:1012400000F0A6FD40B9102D06D200222946501EFE
:1012500000F02EF8756000E00124204670BD00000B
:101260007C00002088000020094808B5016E41F08C
:1012700001010166016E01F001010091816D41F0F3
:1012800080518165806D00F08050009008BD0000A5
:1012900000100240002809DB00F01F0201219140EC
:1012A0004009800000F1E020C0F800117047000004
:1012B000F0B40E4B1B680C46C3F30223C3F10705C1
:1012C000042D00D90425191D072901D2002300E0AF
:1012D000DB1E012606FA05F1491E214099409E4079
:1012E000761E16403143F0BC01F030BD0CED00E03D
:1012F000064900F0070208684FF6FF03184040EA6D
:101300000220034A10430860704700000CED00E023
:101310000000FA051649B0F5007F0868C0F34120C7
:1013200009D0022805D0086820F4C06040F480602D
:101330000860002070470128FBD0086820F4C060D6
:1013400040F4007008600B483222006850430A4A9B
:10135000B0FBF2F0401C00E0401E4A69520501D586
:101360000028F9D148694005E3D503207047000003
:10137000007000408800002040420F0002480068D2
:1013800000F4C06070470000007000402DE9F84F85
:101390000446002700889C4D3E46000515D5E06BAD
:1013A00060B1B0F5000F04D0B0F5400F2BD001278D
:1013B0000AE0E86840F48030E86024E00021201D65
:1013C00001F038F807001ED03E462068800338D56B
:1013D000A86D4FF00008C00009D4A86D40F08050FF
:1013E000A865A86D4FF0010800F080500090DFF86C
:1013F0001CA2DAF8001041F48071CAF80010FFF75F
:1014000089FB814610E0D5F88800E16B20F44000AC
:101410000843C5F88800D8E7FFF77CFBA0EB09007C
:10142000022801D9032704E0DAF80000C005F3D54B
:10143000EFB33E46B8F1000F03D0A86D20F0805006
:10144000A8652078C00707D0D5F88800216A20F069
:1014500003000843C5F888002078800707D5D5F831
:101460008800616A20F00C000843C5F888002078E5
:10147000800607D5D5F88800A16A20F440600843AB
:10148000C5F888002088800507D5D5F88800616BED
:1014900020F440200843C5F888002088400509D57D
:1014A000D5F88800A16B20F44010084300E02EE03E
:1014B000C5F888002078400607D5D5F88800E16A8D
:1014C00020F440500843C5F888002088C00507D59F
:1014D000D5F88800216B20F440300843C5F8880017
:1014E00020884FF0006780044FF080684ED5D5F813
:1014F0008800216C20F040600843C5F88800206C0B
:10150000B8423BD1E86840F48010E8603EE0D5F88E
:10151000900010F4407014D0216D814211D0D5F8A4
:101520009000D5F8901020F4407041F48031C5F857
:101530009010D5F8901021F48031C5F89010C5F8BE
:101540009000C00711D0FFF7E5FA074641F288394D
:1015500007E000BFFFF7DEFAC11B494501D90326AA
:1015600068E7D5F890008007F4D5D5F89000216D94
:1015700020F440700843C5F890005BE7404505D172
:101580000121201D00F056FF00B1064620684003EF
:1015900017D5D5F88800616C20F040600843C5F885
:1015A0008800606CB84204D1E86840F48010E860BC
:1015B00007E0404505D10121201D00F03BFF00B1AF
:1015C00006462088400411D5D5F88800A16C20F08B
:1015D00040500843C5F88800A06CB0F1805F05D189
:1015E0000221201D00F026FF00B1064620880004DD
:1015F00006D555F8880FE16C20F08040084328603C
:10160000304600F005B800000010024000700040B5
:1016100018BCBDE8E08F00002DE9F0470F4605003B
:1016200058D0404E306800F00700B84209D2306808
:1016300020F0070038433060306800F00700B842FF
:1016400048D12878384CC0072CD06868032811D0BE
:10165000022812D0216898B1490500293ADAA16818
:1016600021F003010143A160FFF754FA804641F2E3
:10167000883910E021688901EFE721688903ECE7E8
:101680008907EAE7FFF746FAA0EB0801494502D9C6
:101690000320BDE8F087A068696800F00C00B0EB9B
:1016A000810FEFD12878800705D5A068A96820F0C0
:1016B000F0000843A060306800F00700B8420BD982
:1016C000306820F0070038433060306800F00700D1
:1016D000B84201D00120DCE72878400705D5A06892
:1016E000E96820F4E0600843A0602878000706D588
:1016F000A068296920F4605040EAC100A06000F0B1
:101700003FF8A168094AC1F30311515C01F01F01C0
:10171000C8400749086007480068BDE8F047FFF780
:1017200081BD00000020024000100240C8430008B4
:10173000880000208000002005480649006889686C
:10174000054AC1F30221515C01F01F01C8407047F6
:10175000880000200010024008440008054806499F
:1017600000688968054AC1F3C221515C01F01F017C
:10177000C84070478800002000100240084400085C
:1017800070B52549002318468A68CC6812F00C020F
:1017900004F00306214C4FEA640509D00C2A05D059
:1017A000042A32D0082A00D1284670BD012E10D15B
:1017B0000B681B0704D4D1F89430C3F3032302E071
:1017C0000B68C3F30313164E56F82330DAB10C2A14
:1017D000EBD1C86800F00300022818D0032818D005
:1017E0001846CA68CB68C2F30212C3F30623434308
:1017F000521CB3FBF2F2C868C0F34160401C4000C9
:10180000B2FBF0F070BD184670BD204670BD20469A
:10181000E7E72846E5E70000001002400024F40056
:10182000D84300082DE9F84304006FD0FE4DA868A6
:1018300000F00C06E86800F003072078C00664D5C5
:1018400076B10C2E01D1012F0AD0A069002828689A
:101850007AD040F001002860FFF75CF980465DE037
:101860002868800702D5A0690028DED0216A286890
:10187000000703D5286800F0F00004E0D5F89400D4
:10188000F02202EA1010814216D9084600F068FEE4
:1018900000283BD1286840F0080028602868216AA9
:1018A00020F0F000084328606868E16920F47F4078
:1018B00040EA0120686016E0286840F008002860CF
:1018C0002868216A20F0F000084328606868E16910
:1018D00020F47F4040EA0120686026B9206A00F0C9
:1018E0003FFE0028D5D1FFF74BFFA968CF4AC1F3CF
:1018F0000311515C01F01F01C840CD490860CD487B
:101900000068FFF78FFC00287ED12EE0CAE000BF00
:10191000FFF700F9A0EB0800022876D828688007B6
:10192000F6D5286840F0080028602868216A20F071
:10193000F000084328606868E16920F47F4040EACD
:101940000120686011E0FFE720F001002860FFF748
:10195000E1F8804606E000BFFFF7DCF8A0EB0800E6
:101960000228DAD828688007F6D42078C00740D04B
:10197000082E18D00C2E01D1032F14D06068B0F5BA
:10198000803F17D0B0F5A02F286817D020F4803002
:101990002860286820F4802028606068E0B1FFF7A4
:1019A000B9F8804614E02868800322D560680028D2
:1019B00078D01EE0286840F48030EDE740F48020C5
:1019C0002860F7E7FFF7A6F8A0EB08006428A4D882
:1019D00028688003F6D50CE0FFF79CF8804605E008
:1019E000FFF798F8A0EB0800642896D828688003D1
:1019F000F6D4207880073BD5042E11D00C2E01D1CF
:101A0000022F0DD0E06801E0B6E1FFE00028286871
:101A10001ED040F480702860FFF77CF807460CE089
:101A2000286840050CD5E0680028C1D008E000BF58
:101A3000FFF770F8C01B022893D828684005F7D537
:101A40006868217C20F0F85040EA016068600FE08F
:101A500020F480702860FFF75DF8074605E000BFBE
:101A6000FFF758F8C01B0228B1D828684005F7D402
:101A70002078000729D560690028D5F8940012D095
:101A800040F00100C5F89400FFF744F8074604E071
:101A9000FFF740F8C01B022899D8D5F894008007BA
:101AA000F6D512E02BE120F00100C5F89400FFF715
:101AB00031F8074605E000BFFFF72CF8C01B0228ED
:101AC00085D8D5F894008007F6D42078400766D5ED
:101AD000A86D0027C00008D4A86D40F08050A8650C
:101AE000A86D012700F08050009053480168C90597
:101AF00012D40168814641F480710160FFF70AF851
:101B0000804605E0FFF706F8A0EB080002287DD824
:101B1000D9F80000C005F5D5A068012816D0052821
:101B2000D5F8900017D020F00100C5F89000D5F846
:101B3000900020F0040000BFC5F89000A06841F2BA
:101B40008839C0B1FEF7E6FF80460FE0D5F8900077
:101B500040F00100F0E740F00400C5F89000F5E720
:101B6000FEF7D8FFA0EB080149454FD8D5F8900003
:101B70008007F5D50EE0FEF7CDFF804606E000BFFA
:101B8000FEF7C8FFA0EB080149453FD8D5F8900003
:101B90008007F5D41FB1A86D20F08050A86520788B
:101BA000800628D5606A0028D5F8980012D040F049
:101BB0000100C5F89800FEF7ADFF074605E000BF3D
:101BC000FEF7A8FFC01B022820D8D5F89800800790
:101BD000F6D510E020F00100C5F89800FEF79AFF56
:101BE000074604E0FEF796FFC01B02280ED8D5F882
:101BF00098008007F6D4A06AA8B1022824D00C2E41
:101C00007DD0286820F08070286000E0B3E028686C
:101C1000000103D4E86820F00300E860E8680749A1
:101C20000840E8600CE09FE000100240C843000854
:101C3000880000208000002000700040FFFFEEFEC2
:101C4000FEF768FF044699E0E868E26A00F00301E5
:101C5000914226D1216B00F07002090110399142A6
:101C60001FD1626B00F4FE41B1EB022F19D194F841
:101C7000382000F07841B1EBC26F12D1A18F00F48F
:101C8000C00249084905A1F50011914209D194F813
:101C9000401000F0C06049084906A1F1007181427E
:101CA0004BD00C2E6FD0286840016CD4286820F0EF
:101CB00080702860FEF72EFF064604E0FEF72AFF3C
:101CC000801B022857D828688001F7D4F4E90B015B
:101CD0006FF00F0202EB01110843218A52044908F8
:101CE00002EB4151A26841EA02210843217D4FF0F5
:101CF0007E42490802EB41610843217B00E042E05B
:101D000040EAC160E968214A11400843E860286858
:101D100040F080702860E86840F08070E860FEF76E
:101D2000F9FE044605E000BFFEF7F4FE001B0228A2
:101D300021D828688001F7D523E02868800120D4C5
:101D4000286840F080702860E86840F08070E860A3
:101D5000FEF7E0FE044604E0FEF7DCFE001B02286E
:101D600009D828688001F7D50BE000BFFEF7D2FE46
:101D7000001B022802D90320BDE8F88328688001EF
:101D8000F4D40020F8E70120F6E700008C809D01E4
:101D900010B5401EB0F1807F01D3012010BD4FF07F
:101DA000E02460610F21601700F0D0FF0020A061E7
:101DB00007202061002010BD10B5040002D0A06FE4
:101DC00010B107E0012010BD002084F87400204607
:101DD00000F026F82420A0672068016821F00101A6
:101DE0000160204600F05AFE0128ECD0606A10B174
:101DF000204600F0C1FD2068416821F49041416017
:101E00002068816821F02A0181602068016841F022
:101E1000010101602046BDE8104000F011BE000045
:101E200070B586B0044614216846FEF708FA214EC4
:101E3000256800212048022203230724B54218D137
:101E4000056E45F480450566056E05F480450595EB
:101E5000C56C45F00205C564C06C02AD00F002001F
:101E6000059085E81A00C020CDE9000269461348B4
:101E70001BE0134EB5421AD1856D45F400358565DA
:101E8000856D05F400350595C56C45F00105C56403
:101E9000C06C02AD00F00100059085E81A000C202E
:101EA000CDE9000269464FF09040FEF755FD06B0BF
:101EB00070BD0000003801400010024000040048DE
:101EC000004400402DE9F8430446806F1F46164643
:101ED0000D4620284FD1CDB1C6B194F87400012829
:101EE00049D0012084F874004FF00008C4F88080C5
:101EF0002120A067FEF70EFEA4F850608146A4F8EA
:101F00005260A068B0F5805F03D004E00120BDE816
:101F1000F883206928B12E465FF0000584F87480AC
:101F200010E00026FAE78021204600F0A7FEB8B9AD
:101F3000C6B116F8010B21680885B4F85200401E9E
:101F4000A4F85200B4F852004B464FF0000200973C
:101F50000028E8D14FF04001204600F08FFE30B15C
:101F60000320D4E735F8020BC0F30800E3E7202094
:101F7000A0670020CBE70220C9E7FEE70148FEF793
:101F800023BE0000CC04002001688A69D243920776
:101F900001D400228A6200688169C943C90703D05D
:101FA000816941F001018161704700002DE9F04134
:101FB0000446006890460E468069C043C00633D48C
:101FC0000025202720688069C043800615D5701C35
:101FD000F8D0FEF79FFDA0EB0800B04201D8002E1C
:101FE000F0D154F8440F40F0200044F80409677021
:101FF000A57025700120BDE8F08121681020C8611E
:102000002068C7612046FFF7BFFF54F8440B4168C2
:10201000064A11404160206840F0040044F820095D
:102020006777A5772577E5E70020E4E700E800FE7D
:102030002DE9F84304461646DDE90897144898460A
:10204000DAB200900023204600F024F83A464946D0
:10205000204600F0C9F8B8B9F5B2B8F1010F08D0C0
:102060002168300A88623A464946204600F0BCF8AA
:1020700050B9206885624B460022402120460097D7
:1020800000F01EF8002800D00120BDE8F883000011
:1020900000200080F0B50568059C68684FF48066F4
:1020A000064FC1F3090106EA545641EA02413E4394
:1020B0001943B043214308436860F0BDFF63FF0349
:1020C0002DE9F0411D4617460E460446DDF81880FE
:1020D00008E0681C06D0FEF71DFDA0EB0800A84232
:1020E0000BD855B12068806936EA000012D0002074
:1020F000B842EED00020BDE8F08154F8440F40F023
:10210000200044F80409202060700020A070207096
:102110000120F0E70120EBE72DE9F0410026904691
:102120000F460446202525E0424639462046FFF763
:102130003DFF78BB20688069C043800613D42068C7
:102140008169C943490701D4218DC1B9C56154F8DA
:10215000440B4168104A1140416044F8206965779A
:10216000A677267716E0FEF7D5FCA0EB0800B8426C
:1021700008D83FB120688069C0434007D4D400200C
:10218000BDE8F08154F8440F40F0200044F8040901
:10219000657026700120F3E700E800FE70B5164672
:1021A0000D4604460DE0324629462046FFF7FEFE66
:1021B00008B1012070BDFEF7ADFC801BA84207D816
:1021C00035B120688069C0438006ECD4002070BD22
:1021D00054F8440F40F0200044F8040920206070B7
:1021E0000020A0702070E4E770B516460D46044646
:1021F0000FE0324629462046FFF7D8FE08B10120FD
:1022000070BD681C05D0FEF785FC801BA84207D86E
:1022100035B120688069C0438007EAD4002070BDD2
:1022200054F8440F40F0200044F804092020607066
:102230000020A0702070E2E730B587B01421684616
:10224000FDF7FDFF1648C16C41F00101C164C16C8E
:1022500001F001010591C16C41F00201C164C06C43
:102260004FF0904500F002000590002240212846E2
:10227000FEF74BFC00242020CDE9000469462846E7
:102280000294FEF769FB402000900120019002209B
:10229000CDE9020469462846FEF75EFB07B030BD73
:1022A00000100240124810B510490160042141603D
:1022B00000210122C0E90212016141618161C16115
:1022C0000162FEF789FC08B172B6FEE700210848FA
:1022D000FEF726FC08B172B6FEE700210448FEF7BF
:1022E0004AFC002801D072B6FEE710BD0054004041
:1022F000CC0400200C4810B50A4901604FF4E131CC
:102300004160002181600C22C160C0E9041281613A
:10231000C16101624162FFF74FFD002801D072B632
:10232000FEE710BD00380140180500200C4810B52C
:102330000A4901604FF4E1314160002181600C22C3
:10234000C160C0E904128161C16101624162FFF7AD
:1023500033FD002801D072B6FEE710BD00440040F6
:102360009C050020FEE7FEE710B5CCB03C212DA86F
:10237000FDF765FF3C213CA8FDF761FF3C21684665
:10238000FDF75DFF3C210FA8FDF759FF3C211EA87A
:10239000FDF755FF244CB4F9020000900120FEF730
:1023A000C9FAB4F904000F900120FEF7C3FAB4F99A
:1023B00006001E900120FEF7BDFA0098A16BE26BAB
:1023C000411A0F984943801A00FB00111748226CEC
:1023D0000068801A00FB0010FEF760F841EC100B5B
:1023E00000F0C4FC51EC100BFEF776F82D90084479
:1023F00000EBD07040103C909620FEF79BFA3C9882
:10240000616A884206DD226A22B9E269521CE261F1
:1024100001222262884204DA206A012801D10020C8
:102420002062E0694CB010BD2C0000209004002018
:10243000704700002DE9F041444C05468846E068AD
:102440000026810728680DD0E16801F00301814270
:1024500016D1A8B1E0686968C0F30210401C884238
:102460000ED120E0012804D0022805D0032807D18E
:1024700008E02168890701E021684905002907DB98
:1024800001265FE02168890302D421684903F5E74A
:10249000E1686A686FF00F0321F0730103EB021229
:1024A00011430143E160206820F080602060FEF766
:1024B00031FB074605E000BFFEF72CFBC01B0228DE
:1024C00037D820680001F7D4B8F1000F18D0B8F160
:1024D000010F1DD0287D4FF07E41400801EB406088
:1024E000A96840EA01202169194A11400843206186
:1024F000206840F080602060FEF70CFB07461AE081
:10250000A868297B000240EAC1602169114AECE712
:10251000288A1149400801EB4050A96840EA01208F
:1025200021690E4AE1E700BFFEF7F4FAC01B02285A
:1025300001D9032606E020680001F5D52069A969C4
:10254000084320613046BDE8F081000000100240E1
:10255000FF80FFF9FF80FF070000E0FFFF809FFF83
:10256000F8B51C4D06460024A86DC00002D5FEF744
:1025700005FF0DE0A86D40F08050A865A86D00F043
:1025800080500090FEF7FAFEA96D21F08051A965F8
:10259000B0F5007F04D0802E07D94FF003040AE085
:1025A000802E08D9A02E01D804E001D1022402E037
:1025B000702E00D101240848016821F00701214351
:1025C0000160006800F00700A04201D00120F8BDC2
:1025D0000020F8BD001002400020024070B58028A5
:1025E00013D2402911D20B4B012401F007051E79AB
:1025F000AC40094BC90800EBC1100EB132B101E08B
:10260000012A03D0195CA143195470BD195C214300
:10261000FAE700001E0000209000002028B1FF22F1
:102620004FF480610248FDF703BE0022F8E7000086
:1026300090000020014A1080518070471E00002049
:1026400010B501F0D9FA44F62063012278215448EC
:10265000FEF71EFB08B1002010BD40F6C210401E60
:10266000FDD1AE220021782001F0CCFA20220021F9
:10267000782001F0C7FA10220021782001F0C2FA78
:10268000B0220021782001F0BDFAC8220021782074
:1026900001F0B8FA00221146782001F0B3FA1022B6
:1026A0000021782001F0AEFA40220021782001F0CC
:1026B000A9FA81220021782001F0A4FAFF2200214A
:1026C000782001F09FFAA1220021782001F09AFAE7
:1026D000A6220021782001F095FAA8220021782076
:1026E00001F090FA3F220021782001F08BFAA42219
:1026F0000021782001F086FAD3220021782001F011
:1027000081FA00221146782001F07CFAD5220021BE
:10271000782001F077FAF0220021782001F072FA97
:10272000D9220021782001F06DFA222200217820A0
:1027300001F068FADA220021782001F063FA12220F
:102740000021782001F05EFADB220021782001F0E0
:1027500059FA20220021782001F054FA8D2200211C
:10276000782001F04FFA14220021782001F04AFA73
:10277000AF220021782001F045FA2E220021782096
:1027800001F040FA0020FFF749FF00F071F805481A
:1027900000210180418001214171084610BD0000E7
:1027A000CC0400201E0000202DE9F047814625487A
:1027B0000D46924601882A781144802905D2804628
:1027C000408869780844402802D30020BDE8F0879B
:1027D00000262AE0A9F1200111FB00606A680024AC
:1027E00032F810701DE000BF07FA04F0000409D5AC
:1027F000B8F80210B8F800003144204489B280B221
:1028000052460BE0BAF1000F1AD00022B8F80210BD
:10281000B8F800003144204489B280B2FFF7DEFEF0
:10282000641C2878A042DFD8761C6878B042D1D8E2
:10283000B8F800102A7848461144A8F80010C5E7F7
:102840000122E3E71E00002070B515460E4604463F
:1028500009E02A463146FFF7A7FF2178884201D0D8
:10286000C8B270BD641C20780028F2D1C0B270BD1F
:1028700070B5104D002400BF04F1B000C2B20021B9
:10288000782001F0BFF900221146782001F0BAF952
:1028900010220021782001F0B5F905EBC412802345
:1028A0004021782001F0BEF9641CE4B2082CE3D387
:1028B00070BD0000900000207047FEF79BBC10B573
:1028C000ACB0442115A8FDF7BAFC142126A8FDF7E9
:1028D000B6FC54216846FDF7B2FC1020159001208B
:1028E0000024CDE91B0460201D901F9415A8FEF75D
:1028F00099FF08B172B6FEE70F20CDE926042894AF
:102900002994002126A82A94FEF786FE08B172B603
:10291000FEE743200090089409940B946846FEF764
:1029200035FD08B172B6FEE74FF40070FEF7F2FC19
:10293000002801D072B6FEE72CB010BD0B4801682C
:1029400041F4700101600A48016841F00101016031
:10295000002181600268074B1A4002608214C26045
:10296000026822F4802202608161704788ED00E0F5
:1029700000100240FFFFF6EA90F82410C90706D0C5
:1029800001684A68836A22F400321A434A6090F868
:102990002410890706D501684A68C36A22F4803288
:1029A0001A434A6090F82410490706D501684A681E
:1029B000036B22F480221A434A6090F8241009071E
:1029C00006D501684A68436B22F400421A434A6004
:1029D00090F82410C90606D501688A68836B22F432
:1029E00080521A438A6090F82410890606D501683F
:1029F0008A68C36B22F400521A438A6090F824104C
:102A0000490611D501684A68036C22F480121A4302
:102A10004A60016CB1F5801F06D101684A68436CB9
:102A200022F4C0021A434A6090F82410090606D521
:102A300001684A68806C22F4002202434A607047B1
:102A4000F8B500260446C0F88060FEF763F8054636
:102A5000206800686FF07E47000708D52B460022EB
:102A60004FF400112046009700F008F960B9206883
:102A7000006840070AD52B4600224FF4800120460B
:102A8000009700F0FBF808B10320F8BD2020A067F4
:102A9000E067266684F874600020F8BD2DE9F041F7
:102AA000044600682269A168E6691143626900254D
:102AB000324311436A4B02686A4E32400A43026055
:102AC00020684168E26821F4405111434160216867
:102AD000A069994201D0226A10438A6822F43062C8
:102AE00002438A606049276860488F420DD1D0F860
:102AF000880010F0030006D0012838D0022834D016
:102B0000032821D135E001211FE059498F420BD123
:102B1000D0F8880010F00C0025D0042827D0082811
:102B200023D00C2810D124E09F420DD1D0F888008A
:102B300010F4406017D0B0F5806F18D0B0F5006F7A
:102B400013D0B0F5406F14D010214A4800264FF43E
:102B500000429F422DD171B1022912D004290DD01B
:102B6000082971D123E00021EFE70221EDE70421DC
:102B7000EBE70821E9E7FEF7DFFD01E0FEF700FEE5
:102B8000E8B3626802EB420181425DD8B0EB023FDC
:102B90005AD8010E03025008181871410023FDF79E
:102BA00013FB354AA0F54071914251D94CE01046D3
:102BB000E7E7E3694FF6EF77934229D1092943D23A
:102BC000DFE801F005080E420B4242422400FEF706
:102BD000B3FD04E0FEF7C2FD01E0FEF7D1FD70B1E8
:102BE0004100606801EB5001B1FBF0F080B2A0F150
:102BF0001001B94228D84FF6F071014000E029E0F9
:102C0000C0F3420001432068C16023E01046E7E7BB
:102C1000092919D2DFE801F005080E180B18181859
:102C20001A00FEF789FD04E0FEF798FD01E0FEF7CB
:102C3000A7FD78B1616800EB5100B0FBF1F080B204
:102C4000A0F11001B94203D9012503E01046F1E7D4
:102C50002168C86066662846A666BDE8F081000067
:102C600000800040F369FFEF00380140001002408F
:102C7000004400400024F400FFFC0F002DE9F04761
:102C80009A4617460E4604464FF000094FF02008BA
:102C9000089D39E0681C37D0FDF73CFFA0EB0A0027
:102CA000A84222D80DB32068016849072CD5C06915
:102CB000C043000528D421684FF4006008622068F2
:102CC000016821F4D07101602068816821F0010160
:102CD0008160C4F87880C4F87C80C4F8808000BF2C
:102CE00084F874900320BDE8F0872068016821F41F
:102CF000D07101602068816821F001018160C4F811
:102D00007880C4F87C80EBE72068C06936EA000070
:102D100004D00020B842BDD00020E4E70120F9E74C
:102D2000FEE700000FB4084B10B504A902AA0398EF
:102D300000F034F9044602A9002000F0B5FC20465A
:102D400010BC5DF814FB0000A93600080907090E45
:102D5000002804DB00F1E02080F80014704700F048
:102D60000F0000F1E02080F8141D704700B52DED34
:102D7000048BB0EE409AF0EE609A83B051EC190BE0
:102D8000FDF742FD41EC180B18EE100A18EE901AF0
:102D90008DED008B002818BF0120084320F0004073
:102DA000C0F17F6000F1E040C00F14D019EE101A9E
:102DB00019EE900A8DED009B002918BF01210843F0
:102DC00020F00040C0F17F6000F1E040C00F04BF80
:102DD000012000F017F8B0EE480A03B0F0EE680AE0
:102DE000BDEC048B00BD02E008C8121F08C1002A18
:102DF000FAD170477047002001E001C1121F002A7C
:102E0000FBD1704701490860704700008C0000202A
:102E10002DE9FF5F82B00021DDE90430020DDDF80D
:102E200040B0034318D044F61050A2F2FF324243A0
:102E30001514119801281FD0A5EB0B00401C5FEA68
:102E4000000A4FF000064E4FDFF83891B04650466A
:102E500015D5CAF1000413E0119801244AA30128F2
:102E600001D16FEA0B010298119AC0E90031C0E963
:102E7000024206B000F08EB8CBF10000DFE7044656
:102E80000021404A491842EB0450CDE9001012E0FD
:102E9000E00707D032463B4640464946FDF789FAEF
:102EA0008046894632463B4610461946FDF781FA70
:102EB00006460F466410002CEAD1DDE90401DDE985
:102EC0000023BAF1000F06DAFDF773FA42464B46CB
:102ED000FDF76FFA05E0FDF728FC42464B46FDF78B
:102EE00024FC04460E460022284BFDF7F7FC03D8CD
:102EF0004FF0FF30014607E00022254B20463146C7
:102F0000FDF7A8F9FDF7D1FC102409E0002C0ADB3D
:102F10000A220023FDF758F9039B30321A55641E2C
:102F200050EA0102F2D1641C039AC4F11103144463
:102F3000119A012A03D0012208430DD10AE0084367
:102F400004D000204FF0110B119072E7A3EB0B059A
:102F50006D1E0DE05B4504DD4FF0000205F101053B
:102F600004E003DA4FF00002A5F10105002AECD0DD
:102F700002981199C0E90231C0E9004579E70000E3
:102F8000000014400000F03F300000000000F0435B
:102F90000000E03F30BCBDE8C09F00002DE9FF4FBE
:102FA00095B09A46884606460025EEE1252877D159
:102FB00000242746F94A0121039400E0044316F84F
:102FC000013F203B01FA03F01042F7D130782A2864
:102FD00011D06FF02F033078A0F13002092A16D8F3
:102FE000039A44F0020402EB820203EB4202104413
:102FF000761C0390EFE758F8042B0392002A03DABB
:10300000504244F40054039044F00204761C30789B
:103010002E2816D116F8010F44F004042A280DD0EA
:103020006FF02F023078A0F13003092B09D807EB9D
:10303000870302EB4303C718761CF3E758F8047BB9
:10304000761C30786C280FD006DC4C2817D0682806
:103050000DD06A2814D104E0742810D07A280FD13A
:103060000DE044F400140AE044F4801401E044F458
:1030700040147278824202D104F58014761C761CCA
:10308000307866280BD013DC582877D009DC00286C
:1030900075D04528F6D04628F4D047281AD193E1B8
:1030A00018E0632835D0642879D0652812D18BE1E7
:1030B000702873D008DC6728F1D069286FD06E289B
:1030C0000DD06F2806D1ACE073282CD0752874D0B1
:1030D000782853D05246179990476D1C54E1C4F399
:1030E0000250022809D003280DD0D8F80010042877
:1030F0000DD00D6008F1040846E1D8F80010EA1779
:10310000C1E90052F6E7D8F800100D80F2E70D7023
:10311000F0E718F8041B8DF8001000208DF801006E
:10312000EB46012003E058F804BB4FF0FF30610785
:103130004FF0000102D40DE009F101018946B942C6
:103140000FDA8145F8DB1BF809100029F4D108E0FB
:1031500009F1010189468142FADB1BF809100029B7
:10316000F6D103985346A0EB090721463846179A33
:1031700000F083FA284400EB090507E044E008E189
:103180000DE01BF8010B524617999047B9F1010960
:10319000F7D2534621463846179AF2E039E00A2121
:1031A000C4F302524FF0000B0091022A06D058F8E7
:1031B000040BC117032A09D00AE023E008F1070035
:1031C00020F00702F2E80201904605E000B2C117C4
:1031D000042A01D140B2C117002906DA0A460021AB
:1031E000404261EB02012D2202E0220504D52B2290
:1031F0008DF80420012203E0E20701D02022F7E746
:10320000914657E00A2100E010214FF0000B009199
:103210000BE010214FF0000B44F00404082700914C
:1032200003E008204FF0000B0090C4F30252022A82
:1032300005D058F8040B0021032A08D008E008F153
:10324000070020F00702F2E80201904603E080B296
:10325000042A00D1C0B24FF0000922072AD53278E3
:10326000702A07D0DDF800C08CF0100C5CEA0B0C63
:1032700005D00EE040228DF80420012208E050EA3B
:10328000010306D030238DF804308DF8052002228A
:103290009146009B83F0080353EA0B030AD150EADE
:1032A000010201D1620705D530228DF804204FF0CC
:1032B00001097F1E3278582A04D039A20C920CAA38
:1032C00002920BE03BA2F9E75B46009AFCF77CFF19
:1032D0000C9B9B5C029A521E0292137050EA0102F0
:1032E000F2D1029804A9081A00F1200B600702D558
:1032F00024F4803400E001275F4502DDA7EB0B00DA
:1033000000E0002000EB0B01009003984944401AB4
:103310000390E00306D453462146179A039800F021
:10332000ACF90544002706E001A85246C05D179994
:1033300090476D1C7F1C4F45F6DBE0030CD55346D0
:103340002146179A039800F098F9054404E03020CC
:103350005246179990476D1C0099481E009000290D
:10336000F5DC08E00298029952460078491C029167
:10337000179990476D1CBBF10001ABF1010BF1DC1B
:103380005BE100F068F90544761C307800287FF492
:103390000DAE19B0284600F05BB900000928010005
:1033A00030313233343536373839616263646566BB
:1033B000000000003031323334353637383941427D
:1033C0004344454600000000600700D4062708F18A
:1033D000070020F00700F0E80223804603F0004CCD
:1033E0005FEA0C0001D097A009E0200501D596A066
:1033F00005E0E00701D095A001E0AFF24C0013908A
:10340000307823F0004365280CD006DC452809D02D
:1034100046281DD047287FD13BE0662818D0672872
:103420007AD136E00021112F01DB112000E0781C59
:10343000CDE9000104A90CA8FFF7EAFCDDE90D01C4
:103440000C9A4FF0000B07F10109109200914EE029
:103450004FF000400097CDE9011004A90CA8FFF738
:10346000D7FCDDE90D020C9B0F994FF0000B914644
:103470001093009211B9791C00EB0109B7EB090018
:1034800003D4C0F1FF3B07F10109A9EB070001904C
:1034900042E0012F00DA01270021112F01DD112068
:1034A00000E03846CDE9000104A90CA8FFF7B0FC04
:1034B000DDE90D010C9A00914FF0000BB946109216
:1034C00021070FD4009A4A4503DA914601E0A9F199
:1034D0000109B9F1010F05DD109AA9F10101515C53
:1034E0003029F4D0B84202DA10F1040F03DA0121D6
:1034F000CDE9011010E0002803DC8344A9EB0001B2
:1035000002E0411C494500DD8946A0EB0B00401C50
:1035100001904FF000400290200705D401984845E3
:1035200002DB4FF0FF30019000208DF84B00029835
:103530000DF14B07B0F1004F25D002200C902B204D
:103540000D90029800280CDA404202902D200D9038
:1035500007E00A210298FDF70DF83031029007F8D4
:10356000011D0C99481E0C900029F2DC02980028DD
:10357000EFD1791E0D980870307800F0200040F0EF
:10358000450007F8020D11A8C01BC01D029013983A
:10359000007800B1012000EB0901019801EBE07116
:1035A000029801440398401A401E0390E00306D499
:1035B00053462146179A039800F05FF80544139884
:1035C000007818B15246179990476D1CE00323D537
:1035D00053462146179A039800F04FF805441BE024
:1035E000BBF1000F07DB0098584504DD10981799D0
:1035F00010F80B0001E017993020524690470198CF
:103600000BF1010B401E05F10105019004D12E20A4
:103610005246179990476D1CB9F10001A9F10109B3
:10362000DEDC05E017F8010B5246179990476D1C38
:103630000299481E02900029F4DC53462146179A4D
:1036400003989EE62D0000002B00000020000000E3
:1036500030BCBDE8C08F2DE9F041044600251E4670
:103660001746880404D405E039462020B0476D1C75
:10367000641EF9D52846BDE8F0812DE9F0410446E5
:1036800000251E469046C80301D5302700E02027BC
:10369000880404D505E041463846B0476D1C641ED9
:1036A000F9D52846BDE8F0810A68531C0B601070FC
:1036B000704700000EB50649642306228DE80E000F
:1036C00002460123A6210348FDF7A4FC0EBD00001D
:1036D00076000020CC0400201CB502238DF80400E5
:1036E00064208DF80510009001AAA6210148FDF77D
:1036F000FBFB1CBDCC04002070B500244FF09045AE
:103700004FF4FA7640212846FDF7F7F93046FDF7E9
:1037100011F9641C082CF5DB01490120486170BDDA
:103720002C0000204FF47A73032202490248FEF76E
:10373000C9BB0000340000209C0500204FF47A73C0
:10374000052202490248FEF7BDBB000070000020C0
:103750009C050020092801D8303000E03730C0B285
:10376000704700003EB5114C6423012221781048B7
:10377000FDF78EFA18B14FF47A70FDF7DBF800F020
:10378000F3F90A20FDF7D6F8AE2020700748012192
:103790006422C01C8DE807000B460022AF210448BC
:1037A000FDF738FCBDE83E4000F0E8B9000000201D
:1037B000CC0400202DED088BB6B0FDF723FDFFF7FC
:1037C0007EF8FEF739FDFEF76DFDFEF793FDFEF77F
:1037D000ADFD002240214FF09040FDF796F9FFF734
:1037E000C1FFFEF72DFF00212D20FFF775FF0821F7
:1037F0002D20FFF771FF01213120FFF76DFF00251C
:103800008DF8BC500A248DF8BD5002232FAAD02178
:10381000BF480094FDF768FB01208DF8B00015202B
:103820008DF8B10002232CAAD021B9480094FDF7ED
:103830005BFB02208DF8B40047208DF8B500022311
:103840002DAAD021B2480094FDF74EFBB1A202ABE5
:1038500007CA83E8070011268DF8C86012278DF883
:10386000CC70022332AAD021A9480094FDF73CFB7A
:10387000022333AAD021A6480094FDF735FBBA46AF
:10388000A846A146B3463C279FEDA5AB9FEDA6BB3E
:103890004D4698FBF5F2A64C09FB1280C4F818803F
:1038A00004F10801C4F8108081F8008081F80180DB
:1038B00030308870FFF736FF6420FDF73BF80123B6
:1038C0002FAAD02192480095FDF70EFB01230DF1A0
:1038D000BD02D1218E480095FDF770FA01232CAA74
:1038E000D0218B480095FDF7FFFA01230DF1B102BD
:1038F000D12187480095FDF761FA9DF8B1000009D4
:10390000FFF728FF8DF80B009DF8B10000F00F00C5
:10391000FFF720FF8DF80C0001232DAAD0217C4851
:103920000095FDF7E1FA01230DF1B502D1217848A8
:103930000095FDF743FA9DF8B500C0F30010FFF7BE
:1039400009FF8DF808009DF8B50000F00F00FFF7A3
:1039500001FF0E268DF809008DF8B8B08DF8C06013
:103960008DF804A08DF8C170022330AAD0216848D8
:103970000095FDF7B9FA8DF8C4608DF8C570022383
:1039800031AAD02162480095FDF7AEFA01232EAA94
:10399000D0215F480095FDF7A7FA01230DF1B90288
:1039A000D1215B480095FDF709FA9DF8B900012384
:1039B00000EE100A01AAD021F8EE408A5448009582
:1039C000FDF792FA01230DF10502D121504800952F
:1039D000FDF7F4F99DF8050080098DF80500FCF766
:1039E0006EFD53EC1A2BFCF7E4FC41EC190B18EEBE
:1039F000900AFCF790FD53EC192BFCF72BFCFCF71D
:103A00009DFDFCF788FD41EC100B4AA153EC102BF7
:103A100012A8FFF787F93220FFF74CFE04F14A00A5
:103A2000B0F900106180B0F90260A680B0F90450CE
:103A3000E5800846FCF732FDB0EE4B8AF0EE6B8A6B
:103A400053EC182BFCF7B5FCFCF778FDE062304630
:103A5000FCF724FD53EC182BFCF7ABFCFCF76EFDD8
:103A600020632846FCF71AFD53EC182BFCF7A1FC49
:103A7000FCF764FD6063FEF777FCA06200210A207A
:103A8000FEF7D8FD01222E4902A8FEF7DDFE0F2128
:103A90000A20FEF7CFFD0122294912A8FEF7D4FE25
:103AA00028A105A8A26AFFF73DF9062005AA04F19E
:103AB0004401135C0D18401C05F8063C0A28F8D395
:103AC000322008711E210A20FEF7B4FD01221C4994
:103AD00005A8FEF7B9FE2D210A20FEF7ABFD1CA1BB
:103AE0001FA8A269FFF71EF9012215491FA8FEF7BA
:103AF000ABFEFEF7BDFEA06A052803D1606908B9D8
:103B0000FFF7FAFDFFF71AFE6420FCF713FFBFE68C
:103B1000CC04002000003A0000000000000000007B
:103B2000000000000000D03FDE718A8EE4F27F3F8B
:103B30002C000020252E3266206465672E4300008D
:103B40002400002073746570733A2564000000003F
:103B5000486561727420526174653A2564202020A2
:103B600020202020200000000349AE2040220870C1
:103B7000092100F047B800000000002010B51D4CDE
:103B8000AE20C0222070022100F03CF80022032168
:103B9000207800F037F800220421207800F032F875
:103BA00000220521207800F02DF80022062120783F
:103BB00000F028F84F220821207800F023F86278DE
:103BC0000921207800F01EF827220A21207800F031
:103BD00019F824220C21207800F014F824220D2159
:103BE000207800F00FF820787F22BDE810401021E7
:103BF00000F008B8000000200148401EFDD17047C9
:103C000090D003001CB502238DF804100A21009106
:103C10008DF80520014601AA0148FDF765F91CBD94
:103C2000CC04002070B5C2B000248DF8041001A9A6
:103C300004E0155D0E19641C7570E4B29C42F8D363
:103C40000A2100915B1C01469BB201AA0248FDF7C4
:103C50004BF942B070BD0000CC0400200000000011
:103C60000000000000000000000000000000000054
:103C700000100010001000100010001000000010D4
:103C800000000000002800280028000000000000BC
:103C9000000000000000000000240024007C00243C
:103CA0000048007C00480048000000000038005434
:103CB0000050003800140054005400380010000078
:103CC0000020005400580030002800540014000860
:103CD00000000000001000280028001000340048F8
:103CE0000048003400000000001000100010000028
:103CF00000000000000000000000000000080010AC
:103D000000200020002000200020002000100008DB
:103D10000020001000080008000800080008000843
:103D200000100020001000380010002800000000E3
:103D30000000000000000000000000000010001063
:103D4000007C0010001000000000000000000000D7
:103D50000000000000000000000000100010001033
:103D6000000000000000000000000038000000001B
:103D70000000000000000000000000000000000043
:103D800000000010000000000008000800100010F3
:103D90000010001000200020000000000038004447
:103DA0000044005400440044004400380000000077
:103DB0000010003000500010001000100010001023
:103DC0000000000000380044004400040008001017
:103DD0000020007C000000000038004400040018AF
:103DE000000400040044003800000000000800182F
:103DF000002800280048007C00080008000000009F
:103E0000007C0040004000780004000400440038BA
:103E100000000000003800440040007800440044E6
:103E20000044003800000000007C0004000800107E
:103E30000010002000200020000000000038004496
:103E400000440038004400440044003800000000F2
:103E50000038004400440044003C000400440038A2
:103E60000000000000000000001000000000000042
:103E70000000001000000000000000000000001022
:103E80000000000000000010001000100000000002
:103E9000000C003000400030000C0000000000006A
:103EA000000000000000007C0000007C000000001A
:103EB000000000000000000000600018000400186E
:103EC000006000000000000000380044000400080A
:103ED0000010001000000010000000000038004436
:103EE000004C0054005C004000400038000000001E
:103EF00000100028002800280028007C004400440E
:103F000000000000007800440044007800440044B1
:103F100000440078000000000038004400400040E9
:103F200000400040004400380000000000700048DD
:103F300000440044004400440048007000000000B9
:103F4000007C00400040007C004000400040007CBD
:103F500000000000007C004000400078004000406D
:103F600000400040000000000038004400400040D5
:103F7000005C00440044003800000000004400449D
:103F80000044007C00440044004400440000000061
:103F90000038001000100010001000100010003851
:103FA00000000000000400040004000400040004F9
:103FB0000044003800000000004400480050006049
:103FC000005000480048004400000000004000404D
:103FD00000400040004000400040007C0000000025
:103FE0000044006C006C0054004400440044004451
:103FF0000000000000440064006400540054004CC1
:10400000004C00440000000000380044004400441C
:1040100000440044004400380000000000780044E0
:1040200000440044007800400040004000000000D0
:104030000038004400440044004400440054003868
:104040000004000000780044004400440078004868
:1040500000480044000000000038004400400030E8
:10406000000800040044003800000000007C00103C
:1040700000100010001000100010001000000000E0
:10408000004400440044004400440044004400381C
:1040900000000000004400440044002800280028DC
:1040A00000100010000000000044004400540054C0
:1040B0000054006C00280028000000000044002884
:1040C0000028001000100028002800440000000014
:1040D00000440044002800280010001000100010C8
:1040E00000000000007C0004000800100010002008
:1040F0000040007C000000000018001000100010BC
:104100000010001000100010001000180020002007
:10411000001000100010001000080008000000004F
:1041200000300010001000100010001000100010EF
:10413000001000300010002800280044000000009B
:10414000000000000000000000000000000000006F
:104150000000000000000000000000FE0020001031
:10416000000000000000000000000000000000004F
:104170000000000000380044003C0044004C0034C3
:10418000000000000040004000580064004400446B
:1041900000640058000000000000000000380044E7
:1041A000004000400044003800000000000400040B
:1041B0000034004C00440044004C00340000000077
:1041C0000000000000380044007C0040004400383B
:1041D00000000000000C0010007C00100010001017
:1041E0000010001000000000000000000034004C2F
:1041F00000440044004C00340004007800400040BB
:1042000000580064004400440044004400000000E2
:1042100000100000007000100010001000100010CE
:1042200000000000001000000070001000100010DE
:1042300000100010001000E0004000400048005056
:1042400000600050004800440000000000700010B2
:1042500000100010001000100010001000000000FE
:104260000000000000780054005400540054005432
:1042700000000000000000000058006400440044FA
:10428000004400440000000000000000003800442A
:10429000004400440044003800000000000000001A
:1042A000005800640044004400640058004000408E
:1042B000000000000034004C00440044004C003476
:1042C00000040004000000000058006400400040AA
:1042D00000400040000000000000000000380044E2
:1042E00000300008004400380000000000200020DA
:1042F00000780020002000200020001800000000AE
:10430000000000000044004400440044004C00341D
:1043100000000000000000000044004400280028C5
:1043200000280010000000000000000000540054AD
:104330000054006C0028002800000000000000006D
:104340000044002800100010002800440000000075
:104350000000000000440044002800280010001065
:104360000010006000000000007C00080010002029
:104370000040007C00000000001800100010001039
:104380000020002000100010001000180010001085
:10439000001000100010001000100010001000109D
:1043A000003000100010001000080008001000107D
:1043B000001000300000000000000074004C0000FD
:1043C00000000000000000000000000000000000ED
:1043D0000102030406070809A0860100400D03003E
:1043E000801A060000350C0040420F0080841E0039
:1043F00000093D0000127A000024F40000366E012E
:104400000048E801006CDC02000000000102030427
:10441000304400080000002090000000E62D000855
:10442000C04400089000002090090000F62D00080C
:10443000AE03640000000000000000000000000067
:10444000000000000000000000000000000000006C
:1044500000000000070A00005C3C000800000000AB
:1044600000000000303030000000000000000000BC
:10447000000000000000000000000000000000003C
:104480001400000000000000000000000000000018
:10449000000000000000000000000000000000001C
:1044A000000000000000000000000000010000000B
:1044B000100000000000000000093D0000000000A6
:040000050800018D61
:00000001FF
