:020000040800F2
:10000000F8080020A5010008AB250008BD22000863
:10001000A9250008D9090008012C000800000000EB
:10002000000000000000000000000000052B000898
:10003000DB09000800000000AD250008072B0008C0
:10004000BF010008BF010008BF010008BF01000890
:10005000BF010008BF010008BF010008BF01000880
:10006000BF010008BF010008BF010008BF01000870
:10007000BF010008BF010008BF010008BF01000860
:10008000BF010008BF010008BF010008BF01000850
:10009000BF010008BF010008BF010008BF01000840
:1000A000BF010008BF010008BF010008BF01000830
:1000B000BF0100080000000000000000BF010008B0
:1000C000BF0100080000000000000000BF010008A0
:1000D00000000000BF010008BF0100080000000090
:1000E000BF010008BF010008000000000000000080
:1000F0000000000000000000000000000000000000
:10010000000000000000000000000000BF01000827
:100110000000000000000000BF010008BF0100084F
:10012000BF010008BF010008BF010008BF010008AF
:10013000BF010008000000000000000000000000F7
:10014000BF010008BF010008BF010008BF0100088F
:10015000BF010008BF010008BF010008BF0100087F
:10016000BF010008BF010008BF0100080000000037
:10017000BF010008BF0100080000000000000000EF
:10018000BF010008BF010008BF010008DFF810D060
:1001900000F02AFB0048004711350008AFF300804B
:1001A000F80800200648804706480047FEE7FEE7BB
:1001B000FEE7FEE7FEE7FEE7FEE7FEE7FEE7FEE717
:1001C000BD2B00088D010008D2B201E000F8012B20
:1001D000491EFBD270470022F6E710B513460A46C7
:1001E00004461946FFF7F0FF204610BD2DE9FE4FEB
:1001F000804681EA0300C00F0C46009021F00041C8
:1002000023F00045B8EB0200A94105D24046214643
:1002100090461C460B46024623F00040104347D050
:10022000270DC7F30A00C3F30A510290401A019048
:1002300040286BDAC3F3130040F4801B0098924609
:1002400020B10023D2EB030A63EB0B0B0198594654
:10025000C0F14002504600F0E2F906460D46504615
:100260005946019A00F0EAF910EB080061410024B8
:1002700087EA115284EAE7731A4340D0009A62B3C6
:10028000019A012A4FEA075215DC001B61EB0201BB
:100290004FF0004202EA0752CDE90042001C41F54E
:1002A000801132462B4600F021FA03B000F045B829
:1002B00040462146F9E7001B61EB0201001C41F5B5
:1002C000801300185B412018A2F5001747EB0301CB
:1002D00040EAD570B6196D4111E06D084FEA360657
:1002E00045EAC0754FEA0752001B61EB0201001C92
:1002F00041F5801149084FEA30000019514132465A
:100300002B4603B000F01CB800F0E1B900980122C0
:1003100040000023D0EB020263EBE073009821461B
:100320004FEAE074B8EB000061EB0401E9E783F009
:1003300000435BE781F0004158E730BCBDE8C08F67
:1003400030BCBDE8C04FFFF7DFBF2DE9FE4F81EAAB
:10035000030404F0004421F0004100944FF0000B2E
:1003600023F0004350EA01045ED052EA03045BD05C
:10037000C3F30A54C1F30A552C44A4F2F334019494
:10038000A0FB0254C1F3130141F48011C3F3130322
:1003900043F4801301FB024400FB034E840A970AD6
:1003A00044EA815447EA8357A4FB076802958D0A03
:1003B00005FB07854FEA932C04FB0C542705029D8F
:1003C0004FEA065847EA1637B5EB08056EEB070CFF
:1003D000870E920E47EA811742EA8312A7FB0201B9
:1003E000B6EB0B0164EB00042B0D43EA0C335E18F3
:1003F00044EB1C50DA465146E7FB0201C5F31304F7
:100400004FEA0B3343EA14534FEA0432019C43EAA8
:100410000603A4F10C040294009CCDE900B400F0A2
:1004200065F903B000F003B800200146F9E730BCDD
:10043000BDE8C08F2DE9F04D81EA030404F0004BC4
:1004400021F0004514464FF0000A23F0004150EA25
:10045000050220D054EA01021DD0C5F30A57024616
:10046000C5F31303C1F31300C1F30A5640F480151A
:1004700043F48013A7EB0608101BD64608F2FD389C
:1004800073EB050002D308F1010801E092185B410B
:10049000B8F1000F03DA00200146BDE8F08D00201E
:1004A0004FF48011064684460EE0171B73EB0507D8
:1004B00005D3121B63EB050306434CEA010C490804
:1004C0004FEA300092185B4150EA0107EDD152EA41
:1004D000030012D082EA040083EA0501084305D034
:1004E000101BAB4106D20122002306E000224FF090
:1004F000004302E06FF0010253101AEB06004CEBD0
:10050000085110EB0A0041EB0B01BDE8F04D00F083
:10051000DEB80EB540F2334102910021CDE9001161
:100520000A460B4600F0E2F803B000BD00F00042BE
:1005300030F000400AD0C10D01F56071C0F3160023
:1005400042EA0151C20840071143704700200146AA
:10055000704701F0004330B421F0004150EA01023D
:1005600006D00A0DA2F56072C1F31301002A02DC65
:1005700030BC00207047440F44EAC104C100E018B9
:1005800030BC00EBC25000F06BB830B50B460146F2
:1005900000202022012409E021FA02F59D4205D322
:1005A00003FA02F5491B04FA02F52844151EA2F1CC
:1005B0000102F1DC30BD2DE9F05F054600209246D6
:1005C0009B4688460646814640241BE02846414615
:1005D0004746224600F01AF953465A46C01A91413E
:1005E00010D311461846224600F019F82D1A67EB71
:1005F00001084F4622460120002100F010F817EBB9
:1006000000094E41201EA4F10104DFDC48463146BA
:100610002A46434600F000B830BCBDE8C09F202AFF
:1006200004DB203A00FA02F1002070479140C2F149
:10063000200320FA03F3194390407047202A06DB79
:10064000CB17203A41FA02F043EAE07306E041FAA0
:1006500002F3D040C2F1200291400843194670478E
:100660000029A8BF7047401C490008BF20F00100C6
:10067000704710B4B0FA80FC00FA0CF050EA0104A4
:1006800004BF10BC704749B1CCF1200421FA04F436
:1006900011FA0CF118BF012121430843A3EB0C010F
:1006A000CB1D4FEA00614FEA102042BF002010BC72
:1006B000704700EBC35010440029A4BF10BC704722
:1006C000401C490008BF20F0010010BC704710B565
:1006D000141E73F1000408DA401C41F10001921865
:1006E0005B411A4301D120F0010010BD2DE9F04D0E
:1006F00092469B4611B1B1FA81F202E0B0FA80F263
:1007000020329046FFF78BFF04460F4640EA0A006E
:1007100041EA0B0153465A46084313D0114653EAA7
:10072000010019D0C8F14002504600F06FF80546AC
:100730000E46504659464246FFF771FF084305D022
:10074000012004E020463946BDE8F08D0020054335
:1007500046EAE0762C4337430A986305E40AA0EBA7
:1007600008000022FD0A44EA47540A3002D500205E
:100770000146E9E7010510196941DDE9084500195D
:100780006941BDE8F04DA2E7C1F30A52C1F313017C
:1007900040F2FF3341F480119A4202DA0020014610
:1007A000704740F233439A42A2F2334202DC524293
:1007B00000F02CB8FFF733BF30B5041E71F1000410
:1007C00004DB4FF00044404264EB0101141E73F15E
:1007D000000405DB1C464FF00043524263EB040368
:1007E000994208BF904230BD064C074D06E0E068D4
:1007F00040F0010394E8070098471034AC42F6D368
:10080000FFF7C8FC7845000898450008202A04DB5B
:10081000203A21FA02F00021704721FA02F3D04079
:10082000C2F1200291400843194670472DE9F0417A
:10083000044600270D46006801F02EFE064620689B
:1008400001F026FE304359D02068C1682C4E890142
:1008500005D5617E012902D1217E01290BD0022D0F
:100860001DD0206801F018FEB8B120688168C1F37E
:10087000400169B111E00125224902E08F422ED2E8
:100880007F1C0268D2435206F8D440210160E8E799
:100890008168314041F010018160012D11D0206844
:1008A00001F0F6FD48B120688168C1F3400121B92B
:1008B0008168314041F020018160022D08D0032D74
:1008C00004D0042500F026FD064613E00C25F9E7C8
:1008D0000825F7E700F01EFD801B05280AD9606D8A
:1008E00040F010006065A06D40F00100A06501209F
:1008F000BDE8F081206880682842EBD10020F7E74E
:10090000C0FFFF7F000040A370B504460068816807
:100910008268C1F3400112F0010F24D019BB816835
:1009200001F00D01012910D18168104A1140891C84
:10093000816021680320086000F0ECFC05460EE0B1
:1009400000F0E8FC401B022809D9606D40F010005F
:100950006065A06D40F00100A065012070BD2068B9
:100960008068C007ECD1002070BD0000C0FFFF7F91
:1009700070B504460068816811F0010F28D18168C4
:10098000144A114215D18168D5432940491C816020
:1009900000F0C0FC064616E0816811F0010F03D19B
:1009A00081682940491C816000F0B4FC801B02284A
:1009B00009D9606D40F010006065A06D40F0010045
:1009C000A065012070BD20680168C943C907E3D153
:1009D000002070BD3F000080FEE770472DE9F84F12
:1009E00000270446009790F85000DFF8B0930D46BA
:1009F000B846012811D0012684F85060206801F023
:100A00004BFD60B1606D40F0200060655FF0010754
:100A100084F85080384600F0D7B90220FBE76868B8
:100A20000C23052812D8022807D0032807D0042851
:100A300007D0052807D0062007E06B6006E01220EB
:100A400003E0182001E04FF480706860D5E90021D0
:100A5000206803EA91131844036B01F01F014FF063
:100A60001F0C0CFA01FCC2F3846223EA0C038A40D7
:100A700013430363206801F00FFD8246206801F0F4
:100A800007FD5AEA00001DD1AA682968206801F014
:100A90000FFD20686969C268C2F3C102520091402B
:100AA0002A69042A0FD000EB82002B68026EDFF85F
:100AB000F0C203F0F84302EA0C020B431A4342F07F
:100AC0000041016672E0002101F0DCFC4003206877
:100AD0004FF0000172D001F0D5FC90FAA0F0B0FA0E
:100AE00080F1286842036ED090FAA0F0B0FA80F04E
:100AF000814204D100221146206801F0E8FC012166
:100B0000206801F0BFFC400320684FF001015DD078
:100B100001F0B8FC90FAA0F0B0FA80F12868420326
:100B200059D090FAA0F0B0FA80F0814204D10022AE
:100B30000121206801F0CBFC0221206801F0A2FC19
:100B4000400320684FF0020148D001F09BFC90FA6E
:100B5000A0F0B0FA80F12868420344D090FAA0F0E7
:100B6000B0FA80F0814204D100220221206801F015
:100B7000AEFC0321206801F085FC400320684FF0A3
:100B8000030133D001F07EFC90FAA0F0B0FA80F1BE
:100B9000286842032FD090FAA0F0B0FA80F081428A
:100BA00004D100220321206801F091FC20688168B3
:100BB00011F0010F22D0ACE000E004E001F062FC93
:100BC000C0F384618DE7C0F3846091E701F05AFCC3
:100BD000C0F38461A2E7C0F38460A6E701F052FC91
:100BE000C0F38461B7E7C0F38460BBE701F04AFC5F
:100BF000C0F38461CCE7C0F38460D0E72A7B296826
:100C000050F8B03FC1F3120C23EA0C0302F0180CA9
:100C1000644A22FA0CF20A4013430360E96849452A
:100C200077D1286841031CD090FAA0F1B1FA81F184
:100C3000491C01F01F0109294FEA403132D800292F
:100C400012D000BF90FAA0F1B1FA81F101F10101D7
:100C500001F01F0106FA01F609D100BFC0F384615B
:100C600009E0C0F38461E3E7C0F38461EEE790FA42
:100C7000A0F1B1FA81F101F1010101F01F0146EA91
:100C8000816102D1C0F3846003E090FAA0F0B0FA71
:100C900080F000F1010000F01F0000EB400041EA8D
:100CA000005132E000290ED090FAA0F1B1FA81F1A2
:100CB00001F1010101F01F0106FA01F606D100BFA2
:100CC000C0F3846106E0C0F38461F1E790FAA0F11B
:100CD000B1FA81F101F1010101F01F0146EA8161E0
:100CE00002D1C0F3846003E090FAA0F0B0FA80F083
:100CF00000F1010000F01F002B4A00EB400002EB66
:100D0000005041EA000141F00071AA68206801F03A
:100D1000CFFB26482A6802423FF47AAE2448816815
:100D2000244D254B01F0E071AA421AD10D0218D4CE
:100D300022689A427FF46CAE826841F4000122F08E
:100D4000E0720A4382601D481D490068B0FBF1F063
:100D500000EB4000800000E0401E00900028FBD126
:100D600056E6184DAA4207D1CD0105D422689A4211
:100D7000F6D141F080710AE06FF00045EA42EFD110
:100D80004A02EDD422689A42EAD141F48001826895
:100D900022F0E0720A4382603AE6000000007F40E1
:100DA00000F0FF03FFFF0700000020FE00000880A6
:100DB00000030450000052C700000450300000201F
:100DC000400D0300000084CB18BCBDE8E08F006834
:100DD000006C7047F8B54FF0000504002E460095F2
:100DE00002D0606D10B107E00120F8BD204600F090
:100DF000C7F8A66584F8506020688168C1F3407127
:100E000019B18168564A1140816020688168C1F338
:100E1000007179B98168534A114041F08051816075
:100E2000514852490068B0FBF1F000E0401E0090CC
:100E30000028FBD120688168C1F3007141B9616D60
:100E400041F010016165A16D41F00101A16501252D
:100E500001F022FB616DC90600D430B1606D40F035
:100E60001000606501252846F8BD606D20F4807093
:100E700040F0020060652068806810F0010F0BD11F
:100E80003B48806810F0010F06D13A4861688268DB
:100E900022F47C120A438260E168606B627E084340
:100EA000A16841EA4231084394F8201040EA014029
:100EB000012904D1A18C304A02EB41410843A16AC7
:100EC00029B101F47071E26A014342EA010021682C
:100ED000CA682A4B1A400243CA60206801F0DCFA53
:100EE0000646206801F0D4FA304315D1207E94F8EC
:100EF0003010800340EA41022068C16844F20203D6
:100F000099431143C16094F8380001280CD020683F
:100F1000016921F001010161206901282068016B4C
:100F200021F00F0111D013E0D4E90F010843D4E9F7
:100F300011121143084321680A6940F2FC739A4375
:100F4000104340F001000861E6E7E269521E1143D8
:100F50000163606D20F0020040F00100606582E7EF
:100F6000C0FFFF5FC0FFFF7F30000020400D030087
:100F700000000450000304500000FEFF07C0F0FF13
:100F800010B586B0044614216846FFF724F91149CC
:100F9000206888421BD11048C16C41F40051C164E3
:100FA000C16C01F400510591C16C41F00101C164B3
:100FB000C06C694600F001000590072000900B20EE
:100FC0000190002002904FF0904000F0D1F806B060
:100FD00010BD000000000450001002402DE9F04157
:100FE000044640690D4608280AD02068C068C0073A
:100FF00008D0606D40F0200060650120BDE8F08100
:10100000082600E0042600F085F9074607E0681C82
:1010100005D000F07FF9C01BA8420FD875B1206839
:1010200000683042F3D0606D40F400706065206865
:1010300001F036FAD0B1607E48B117E0606D40F043
:1010400004006065002084F850000320D6E7206883
:10105000006800070AD5606D20F480706065606DDF
:10106000C00403D4606D40F0010060652068C16871
:10107000082E05D0490401D40C2101600020BDE7F1
:101080000821FAE710B50446006801F005FA10B12E
:101090000221084610BD94F8500001280CD0012010
:1010A00084F850002046FFF763FC01004FF0000079
:1010B00004D084F85000ECE7022010BD626D40F6C9
:1010C00001639A4342F480726265626DD20404D572
:1010D000A26D22F00602A26500E0A06523681C2232
:1010E0001A6084F850002068C268920105D5626DCC
:1010F00022F4005242F4805262658268024B1A4028
:10110000121D8260C5E70000C0FFFF7F10B50446D6
:1011100090F85000012808D0012084F850000321E5
:101120002046FFF783FB10B10BE0022010BD2046E4
:10113000FFF7EAFB28B9616D21F4885141F0010104
:101140006165002184F8501010BD000070B50446A0
:1011500000F0E0F80546601C02D004480078044422
:1011600000F0D8F8401BA042FAD370BD2400002044
:101170002DE9FC4FDFF880A1002301250AF1040BC3
:1011800003244FF00F0C0BF1040EAEE005FA03F64A
:1011900032406FD04F68012F05D0022F03D0112F9E
:1011A00001D0122F17D1D0F808905F0004FA07F889
:1011B00029EA08090097D1F80C8008FA07F848EAEC
:1011C0000908C0F808804768B7430E79C6F30016CF
:1011D0009E403E434660C6684FEA430804FA08F75B
:1011E000BE4301978F6807FA08F73743C7604E6818
:1011F000022E01D0122E13D1DE0800EB86060096D7
:10120000366A5F07FF0E0CFA07F926EA0906D1F8DD
:10121000109009FA07F949EA0609009EC6F82090DD
:101220000768019EB7430E7906F0030606FA08F632
:101230003E4306604E68F60056D5304E376E47F096
:1012400001073766366E23F0030706F001060096A5
:101250002B4E3E44B146B6689F074FEA17780CFA0A
:1012600008F7BE43B0F1904F05D0264FB84204D1E5
:10127000012708E038E0002705E0234FB84201D1FC
:10128000022700E0072707FA08F73743C9F8087074
:10129000DAF800605746D1F8048096435FEAC83810
:1012A00000D516433E60DBF800605F46D1F804804D
:1012B00096435FEA883800D516433E60DEF800604A
:1012C0007746D1F8048096435FEAC82800D51643D4
:1012D0003E60094F0C373E68D1F8048096435FEAC0
:1012E000882800D516433E605B1C0A6832FA03F674
:1012F0007FF44CAF00F00AB8000401400010024037
:101300000000014000040048000800481CBCBDE883
:10131000E08F000001488068704700002400002032
:1013200090F84120202A24D190F84020012A20D092
:10133000012280F84020242280F8412002681368AE
:1013400023F0010313600268136823F480531360D1
:10135000026813680B43136001680A6842F00102D7
:101360000A60202180F84110002180F840100846D2
:1013700070470220704790F84120202A22D190F82F
:101380004020012A1ED0012280F84020242280F82B
:1013900041200268136823F0010313600268136898
:1013A00023F4706343EA0121116001680A6842F086
:1013B00001020A60202180F84110002180F84010CD
:1013C000084670470220704770B5040004D094F8B6
:1013D0004100002510B106E0012070BD84F84050A6
:1013E000204600F079F9242084F841002068016843
:1013F00021F0010101606068216820F070600861DF
:101400002068816821F400418160E0680128A068BB
:1014100007D040F4044021688860E068022803D0C7
:1014200006E040F40040F6E721684FF400604860B1
:1014300020684168114A114341602068C16821F465
:101440000041C160D4E904010843A16940EA0120D8
:101450002168C860D4E90701084321680860206852
:10146000016841F0010101606564202084F84100B9
:10147000256384F84250002070BD00000080000207
:101480002DE9FC4700260446019690F841001F46CE
:101490009246894620287ED120688069C043000496
:1014A00079D594F84000012875D0012084F84000D7
:1014B000242084F8410066644FF02008E068012889
:1014C00009D029F4544040F4205021684860FFF7C7
:1014D00021FF05460DE0314949EA01003049084045
:1014E000F3E7781C05D0FFF715FF401BB84219D869
:1014F000C7B1216888698969C0F34010C1F3001140
:101500000843EED0206880693B46C043C0064FF0D8
:1015100000024FF020012046009517D500F038FF5B
:1015200068BB09E084F8418054F8440F40F0200083
:1015300044F80409267022E02168C1F81C8084F870
:10154000418084F84060002000F02CB800F020FFBB
:10155000A8B921681020C8612168C1F81C800198D1
:10156000504512D12068416841F4804141603B46BA
:10157000002220212046009500F00AFF10B1012032
:10158000E2E708E02168C1F81C800198401C019046
:10159000504593D3C6E70220D6E7000000200002A2
:1015A000FF2300020CBCBDE8F08700002DE9F84FD6
:1015B000044690F84100DDF828A01F4690468B466F
:1015C00020287ED194F8400001287AD0012084F8A8
:1015D0004000FFF79FFE0646012200901923D10329
:1015E000204600F0D5FEE0BB212084F84100102009
:1015F00084F8420000256564C4F82480678565632B
:10160000618D3148FF274FF080784FF00079FF2936
:1016100003D927853A46009039E0618D21850090F5
:101620003AE05946204600F09DFE13E000F002FF2C
:10163000B8B9606A216800788862606A401C60629C
:10164000608D401E6085208D401E80B22085618D9A
:1016500001B168B1608D3246002851462046E5D17F
:1016600000E002E000F0C0FED0B1012000F030B890
:101670005346002280212046009600F089FE002873
:10168000F3D1608DFF2804D927853A46009543465B
:10169000C7E7608D2085009594F828204B46C0E769
:1016A00021682020C86121684A68084B1A404A60B6
:1016B00084F8410084F8425084F840500020D5E777
:1016C000FFE70220D2E700000020008000E800FED3
:1016D00018BCBDE8E08F000010B586B004461421A8
:1016E0006846FEF778FD13492068884220D1124CE5
:1016F000E06C40F00100E064E06C694600F001003D
:1017000005904FF4C06000901220019001200290DB
:1017100003200390042004904FF09040FFF728FD31
:10172000A06D40F40010A065A06D00F400100590BD
:1017300006B010BD0054004000100240024881680D
:1017400002781144816070472400002010B5002405
:10175000032000F063F8002000F008F808B101242D
:1017600001E000F025F8204610BD000070B50E4ED7
:1017700005460024307898B14FF47A71B1FBF0F04F
:101780000A490968B1FBF0F000F084FD40B9102D62
:1017900006D200222946501E00F020F8756000E0B5
:1017A0000124204670BD00002400002030000020ED
:1017B000094808B5016E41F001010166016E01F0B2
:1017C00001010091816D41F080518165806D00F0D3
:1017D0008050009008BD000000100240F0B40E4B95
:1017E0001B680C46C3F30223C3F10705042D00D97F
:1017F0000425191D072901D2002300E0DB1E012664
:1018000006FA05F1491E214099409E40761E164079
:101810003143F0BC01F00ABA0CED00E0064900F0DB
:10182000070208684FF6FF03184040EA0220034A07
:1018300010430860704700000CED00E00000FA055E
:101840001649B0F5007F0868C0F3412009D002288E
:1018500005D0086820F4C06040F480600860002073
:1018600070470128FBD0086820F4C06040F4007085
:1018700008600B483222006850430A4AB0FBF2F07D
:10188000401C00E0401E4A69520501D50028F9D1EC
:1018900048694005E3D50320704700000070004010
:1018A0003000002040420F000248006800F4C06091
:1018B00070470000007000400248016841F48071E8
:1018C00001607047007000400248016841F0040167
:1018D00001607047001002402DE9F84F04460027D0
:1018E00000889C4D3E46000515D5E06B60B1B0F513
:1018F000000F04D0B0F5400F2BD001270AE0E868B4
:1019000040F48030E86024E00021201D00F050FE0B
:1019100007001ED03E462068800338D5A86D4FF0E2
:101920000008C00009D4A86D40F08050A865A86DDB
:101930004FF0010800F080500090DFF81CA2DAF8A8
:10194000001041F48071CAF80010FFF7E3FC8146F3
:1019500010E0D5F88800E16B20F440000843C5F89A
:101960008800D8E7FFF7D6FCA0EB0900022801D9D0
:10197000032704E0DAF80000C005F3D5EFB33E46D4
:10198000B8F1000F03D0A86D20F08050A865207832
:10199000C00707D0D5F88800216A20F0030008436B
:1019A000C5F888002078800707D5D5F88800616AD7
:1019B00020F00C000843C5F888002078800607D581
:1019C000D5F88800A16A20F440600843C5F8880073
:1019D0002088800507D5D5F88800616B20F4402069
:1019E0000843C5F888002088400509D5D5F8880047
:1019F000A16B20F44010084300E02EE0C5F88800F9
:101A00002078400607D5D5F88800E16A20F44050D8
:101A10000843C5F888002088C00507D5D5F8880098
:101A2000216B20F440300843C5F8880020884FF02F
:101A3000006780044FF080684ED5D5F88800216C8F
:101A400020F040600843C5F88800206CB8423BD1C4
:101A5000E86840F48010E8603EE0D5F8900010F4AB
:101A6000407014D0216D814211D0D5F89000D5F886
:101A7000901020F4407041F48031C5F89010D5F8F2
:101A8000901021F48031C5F89010C5F89000C0077F
:101A900011D0FFF73FFC074641F2883907E000BF4D
:101AA000FFF738FCC11B494501D9032668E7D5F883
:101AB00090008007F4D5D5F89000216D20F4407097
:101AC0000843C5F890005BE7404505D10121201D82
:101AD00000F06EFD00B106462068400317D5D5F82A
:101AE0008800616C20F040600843C5F88800606C95
:101AF000B84204D1E86840F48010E86007E040454F
:101B000005D10121201D00F053FD00B106462088BB
:101B1000400411D5D5F88800A16C20F0405008434E
:101B2000C5F88800A06CB0F1805F05D10221201DAE
:101B300000F03EFD00B106462088000406D555F8A9
:101B4000880FE16C20F0804008432860304600F0A8
:101B500005B80000001002400070004018BCBDE84D
:101B6000E08F00002DE9F0470F46050058D0404EA9
:101B7000306800F00700B84209D2306820F0070052
:101B800038433060306800F00700B84248D1287808
:101B9000384CC0072CD06868032811D0022812D016
:101BA000216898B1490500293ADAA16821F00301BA
:101BB0000143A160FFF7AEFB804641F2883910E097
:101BC00021688901EFE721688903ECE78907EAE7E3
:101BD000FFF7A0FBA0EB0801494502D90320BDE8AF
:101BE000F087A068696800F00C00B0EB810FEFD1BE
:101BF0002878800705D5A068A96820F0F000084380
:101C0000A060306800F00700B8420BD9306820F0BF
:101C1000070038433060306800F00700B84201D058
:101C20000120DCE72878400705D5A068E96820F4A2
:101C3000E0600843A0602878000706D5A0682969FD
:101C400020F4605040EAC100A06000F01BF8A168D9
:101C5000094AC1F30311515C01F01F01C840074953
:101C6000086007480068BDE8F047FFF77FBD000047
:101C700000200240001002403845000830000020DB
:101C80002800002070B52549002318468A68CC68D2
:101C900012F00C0204F00306214C4FEA640509D04F
:101CA0000C2A05D0042A32D0082A00D1284670BD5B
:101CB000012E10D10B681B0704D4D1F89430C3F364
:101CC000032302E00B68C3F30313164E56F82330C8
:101CD000DAB10C2AEBD1C86800F00300022818D052
:101CE000032818D01846CA68CB68C2F30212C3F39F
:101CF00006234343521CB3FBF2F2C868C0F34160B1
:101D0000401C4000B2FBF0F070BD184670BD20468C
:101D100070BD2046E7E72846E5E7000000100240D6
:101D20000024F400484500082DE9F84304006FD072
:101D3000FE4DA86800F00C06E86800F00307207864
:101D4000C00664D576B10C2E01D1012F0AD0A0694E
:101D5000002828687AD040F001002860FFF7DAFAFE
:101D600080465DE02868800702D5A0690028DED0A3
:101D7000216A2868000703D5286800F0F00004E015
:101D8000D5F89400F02202EA1010814216D90846D4
:101D900000F0A4FC00283BD1286840F0080028602F
:101DA0002868216A20F0F000084328606868E1692B
:101DB00020F47F4040EA0120686016E0286840F087
:101DC000080028602868216A20F0F0000843286095
:101DD0006868E16920F47F4040EA0120686026B924
:101DE000206A00F07BFC0028D5D1FFF74BFFA968E3
:101DF000CF4AC1F30311515C01F01F01C840CD4926
:101E00000860CD480068FFF7B1FC00287ED12EE0C5
:101E1000CAE000BFFFF77EFAA0EB0800022876D8E0
:101E200028688007F6D5286840F0080028602868F0
:101E3000216A20F0F000084328606868E16920F416
:101E40007F4040EA0120686011E0FFE720F00100D8
:101E50002860FFF75FFA804606E000BFFFF75AFAF6
:101E6000A0EB08000228DAD828688007F6D420788A
:101E7000C00740D0082E18D00C2E01D1032F14D04B
:101E80006068B0F5803F17D0B0F5A02F286817D054
:101E900020F480302860286820F480202860606862
:101EA000E0B1FFF737FA804614E02868800322D5B6
:101EB0006068002878D01EE0286840F48030EDE7A4
:101EC00040F480202860F7E7FFF724FAA0EB080031
:101ED0006428A4D828688003F6D50CE0FFF71AFA26
:101EE000804605E0FFF716FAA0EB0800642896D8B4
:101EF00028688003F6D4207880073BD5042E11D0C3
:101F00000C2E01D1022F0DD0E06801E0B6E1FFE018
:101F1000002828681ED040F480702860FFF7FAF986
:101F200007460CE0286840050CD5E0680028C1D0C1
:101F300008E000BFFFF7EEF9C01B022893D828681D
:101F40004005F7D56868217C20F0FE4040EA01603A
:101F500068600FE020F480702860FFF7DBF9074627
:101F600005E000BFFFF7D6F9C01B0228B1D82868EA
:101F70004005F7D42078000729D560690028D5F8F6
:101F8000940012D040F00100C5F89400FFF7C2F9A8
:101F9000074604E0FFF7BEF9C01B022899D8D5F820
:101FA00094008007F6D512E02BE120F00100C5F87F
:101FB0009400FFF7AFF9074605E000BFFFF7AAF965
:101FC000C01B022885D8D5F894008007F6D4207865
:101FD000400766D5A86D0027C00008D4A86D40F062
:101FE0008050A865A86D012700F0805000905348EC
:101FF0000168C90512D40168814641F4807101600D
:10200000FFF788F9804605E0FFF784F9A0EB0800A8
:1020100002287DD8D9F80000C005F5D5A0680128B0
:1020200016D00528D5F8900017D020F00100C5F88B
:102030009000D5F8900020F0040000BFC5F8900093
:10204000A06841F28839C0B1FFF764F980460FE01B
:10205000D5F8900040F00100F0E740F00400C5F82A
:102060009000F5E7FFF756F9A0EB080149454FD876
:10207000D5F890008007F5D50EE0FFF74BF98046C4
:1020800006E000BFFFF746F9A0EB080149453FD83D
:10209000D5F890008007F5D41FB1A86D20F08050CE
:1020A000A8652078800628D5606A0028D5F89800B1
:1020B00012D040F00100C5F89800FFF72BF9074651
:1020C00005E000BFFFF726F9C01B022820D8D5F88D
:1020D00098008007F6D510E020F00100C5F89800C0
:1020E000FFF718F9074604E0FFF714F9C01B0228B0
:1020F0000ED8D5F898008007F6D4A06AA8B10228B7
:1021000024D00C2E7DD0286820F08070286000E05C
:10211000B3E02868000103D4E86820F00300E86019
:10212000E86807490840E8600CE09FE000100240C2
:1021300038450008300000202800002000700040D2
:10214000FFFFEEFEFFF7E6F8044699E0E868E26A72
:1021500000F00301914226D1216B00F070020901C9
:10216000103991421FD1626B00F4FE41B1EB022F96
:1021700019D194F8382000F07841B1EBC26F12D138
:10218000A18F00F4C00249084905A1F50011914250
:1021900009D194F8401000F0C06049084906A1F147
:1021A000007181424BD00C2E6FD0286840016CD456
:1021B000286820F080702860FFF7ACF8064604E03D
:1021C000FFF7A8F8801B022857D828688001F7D4A9
:1021D000F4E90B016FF00F0202EB01110843218AB1
:1021E0005204490802EB4151A26841EA0221084326
:1021F000217D4FF07E42490802EB41610843217B7B
:1022000000E042E040EAC160E968214A1140084329
:10221000E860286840F080702860E86840F08070CE
:10222000E860FFF777F8044605E000BFFFF772F8B3
:10223000001B022821D828688001F7D523E02868F0
:10224000800120D4286840F080702860E86840F061
:102250008070E860FFF75EF8044604E0FFF75AF884
:10226000001B022809D828688001F7D50BE000BFC1
:10227000FFF750F8001B022802D90320BDE8F883BD
:1022800028688001F4D40020F8E70120F6E7000078
:102290008C809D0110B5401EB0F1807F01D30120DC
:1022A00010BD4FF0E02460610F21601700F0BEFC0C
:1022B0000020A06107202061002010BDFEE701681A
:1022C0008A69D243920701D400228A620068816938
:1022D000C943C90703D0816941F001018161704799
:1022E0002DE9F0410446006890460E468069C043DF
:1022F000C00633D40025202720688069C0438006AB
:1023000015D5701CF8D0FFF705F8A0EB0800B04217
:1023100001D8002EF0D154F8440F40F0200044F8CA
:1023200004096770A57025700120BDE8F08121685F
:102330001020C8612068C7612046FFF7C0FF54F82D
:10234000440B4168064A11404160206840F0040097
:1023500044F820096777A5772577E5E70020E4E7CB
:1023600000E800FEF0B50568059C68684FF48066DB
:10237000064FC1F3090106EA545641EA02413E43C1
:102380001943B043214308436860F0BDFF63FF0376
:102390002DE9F0411D4617460E460446DDF818802B
:1023A00008E0681C06D0FEF7B5FFA0EB0800A842C5
:1023B0000BD855B12068806936EA000012D00020A1
:1023C000B842EED00020BDE8F08154F8440F40F050
:1023D000200044F80409202060700020A0702070C4
:1023E0000120F0E70120EBE770B516460D460446E4
:1023F0000DE0324629462046FFF772FF08B1012062
:1024000070BDFEF787FF801BA84207D835B1206852
:102410008069C0438006ECD4002070BD54F8440F9E
:1024200040F0200044F80409202060700020A070D3
:102430002070E4E770B516460D4604460FE03246BC
:1024400029462046FFF74CFF08B1012070BD681CEB
:1024500005D0FEF75FFF801BA84207D835B1206882
:102460008069C0438007EAD4002070BD54F8440F4F
:1024700040F0200044F80409202060700020A07083
:102480002070E2E700EB8100006E00F0F84070473A
:102490008068C0F3C00070478068C0F38000704758
:1024A000C06810F4406F01D00020704701207047D1
:1024B000042303EAD15310B518444369C1F304510E
:1024C00007248C40A3438A401343436110BD00EBB3
:1024D0008100016E21F00041114301667047000048
:1024E00030B587B018216846FDF775FE18481749C2
:1024F0000024C0E9001484600425C460C0E90445D8
:10250000047601214176C16180F820408462C46272
:1025100080F83040446380F83840FEF75BFC08B137
:1025200072B6FEE70B4800900620CDE901047F203B
:102530000594CDE9030569460548FEF74FFA0028E2
:1025400001D072B6FEE707B030BD000000000450B5
:10255000340400202000F014124810B51049016026
:102560000421416000210122C0E9021201614161A0
:102570008161C1610162FEF727FF08B172B6FEE713
:1025800000210848FEF7CCFE08B172B6FEE7002134
:102590000448FEF7F0FE002801D072B6FEE710BD39
:1025A0000054004098040020FEE7FEE7704700005A
:1025B0002DE9F041444C05468846E0680026810735
:1025C00028680DD0E16801F00301814216D1A8B15D
:1025D000E0686968C0F30210401C88420ED120E018
:1025E000012804D0022805D0032807D108E021687B
:1025F000890701E021684905002907DB01265FE022
:102600002168890302D421684903F5E7E1686A6813
:102610006FF00F0321F0730103EB0212114301432A
:10262000E160206820F080602060FEF773FE0746BE
:1026300005E000BFFEF76EFEC01B022837D82068F9
:102640000001F7D4B8F1000F18D0B8F1010F1DD078
:10265000287D4FF07E41400801EB4060A96840EAC8
:1026600001202169194A114008432061206840F087
:1026700080602060FEF74EFE07461AE0A868297BBE
:10268000000240EAC1602169114AECE7288A114939
:10269000400801EB4050A96840EA012021690E4A38
:1026A000E1E700BFFEF736FEC01B022801D9032672
:1026B00006E020680001F5D52069A969084320617A
:1026C0003046BDE8F081000000100240FF80FFF9B5
:1026D000FF80FF070000E0FFFF809FFFF8B51C4D63
:1026E00006460024A86DC00002D5FFF7DDF80DE016
:1026F000A86D40F08050A865A86D00F08050009053
:10270000FFF7D2F8A96D21F08051A965B0F5007FDF
:1027100004D0802E07D94FF003040AE0802E08D998
:10272000A02E01D804E001D1022402E0702E00D1D5
:1027300001240848016821F0070121430160006875
:1027400000F00700A04201D00120F8BD0020F8BD34
:10275000001002400020024010B5002000F024F8D4
:10276000BDE8104000F0AAB970B5802813D2402906
:1027700011D20B4B012401F007051E79AC40094B27
:10278000C90800EBC1100EB132B101E0012A03D03B
:10279000195CA143195470BD195C2143FAE700008C
:1027A000080000203400002028B1FF224FF480618F
:1027B0000248FDF709BD0022F8E7000034000020C0
:1027C000014A1080518070470800002010B500F0C9
:1027D000D3FF44F62063012278215448FEF750FECF
:1027E00008B1002010BD40F6C210401EFDD1AE223F
:1027F0000021782000F0C6FF20220021782000F080
:10280000C1FF10220021782000F0BCFFB02200217F
:10281000782000F0B7FFC8220021782000F0B2FF36
:1028200000221146782000F0ADFF10220021782010
:1028300000F0A8FF40220021782000F0A3FF8122B1
:102840000021782000F09EFFFF220021782000F078
:1028500099FFA1220021782000F094FFA6220021F8
:10286000782000F08FFFA8220021782000F08AFF56
:102870003F220021782000F085FFA422002178204B
:1028800000F080FFD3220021782000F07BFF00229F
:102890001146782000F076FFD5220021782000F044
:1028A00071FFF0220021782000F06CFFD922002176
:1028B000782000F067FF22220021782000F062FFDC
:1028C000DA220021782000F05DFF1222002178201A
:1028D00000F058FFDB220021782000F053FF202277
:1028E0000021782000F04EFF8D220021782000F09A
:1028F00049FF14220021782000F044FFAF2200217C
:10290000782000F03FFF2E220021782000F03AFFCF
:102910000020FFF749FF00F0D1F8054800210180B1
:10292000418001214171084610BD0000980400203B
:10293000080000202DE9F047814625480D469246C3
:1029400001882A781144802905D280464088697818
:102950000844402802D30020BDE8F08700262AE082
:10296000A9F1200111FB00606A68002432F81070A0
:102970001DE000BF07FA04F0000409D5B8F8021002
:10298000B8F800003144204489B280B252460BE0CE
:10299000BAF1000F1AD00022B8F80210B8F80000FF
:1029A0003144204489B280B2FFF7DEFE641C2878EF
:1029B000A042DFD8761C6878B042D1D8B8F80010B1
:1029C0002A7848461144A8F80010C5E70122E3E739
:1029D0000800002070B515460E46044609E02A4658
:1029E0003146FFF7A7FF2178884201D0C8B270BDF9
:1029F000641C20780028F2D1C0B270BD70B50C46BE
:102A0000054627220021782000F0BCFE0022114656
:102A1000782000F0B7FE2A460021782000F0B2FEB0
:102A200000221146782000F0ADFE224600217820D9
:102A300000F0A8FE00221146782000F0A3FEFF223D
:102A40000021782000F09EFEBDE870402F2200217A
:102A5000782000F097BE70B50C460546262200216E
:102A6000782000F08FFE00221146782000F08AFEC8
:102A70002A460021782000F085FE002211467820A9
:102A800000F080FE22460021782000F07BFE00222C
:102A90001146782000F076FEFF220021782000F019
:102AA00071FEBDE870402F220021782000F06ABE40
:102AB0002E220021782000F065BE000070B5104D78
:102AC000002400BF04F1B000C2B20021782000F061
:102AD00059FE00221146782000F054FE10220021F9
:102AE000782000F04FFE05EBC412802340217820AF
:102AF00000F058FE641CE4B2082CE3D370BD000063
:102B0000340000207047FEF719BE000030B5ABB0AE
:102B1000442115A8FDF75FFB142126A8FDF75BFBF8
:102B200054216846FDF757FBFEF7C6FE224850F8D1
:102B3000901F21F018010160142001241590002538
:102B400017946020CDE91C501B9415A81F95FFF722
:102B5000EBF808B172B6FEE70F20CDE926052895FF
:102B60002995002126A82A95FEF7FCFF08B172B628
:102B7000FEE744F240000090800512901020CDE95D
:102B80000240072004900B950220019405900690C6
:102B9000C00507906846FEF79FFE08B172B6FEE7D3
:102BA0004FF40070FEF74CFE08B172B6FEE7FEF778
:102BB0008BFE2BB030BD0000001002400D480168B4
:102BC00041F4700101600C48016841F001010160AD
:102BD000002181600268094B1A4002608214C260C1
:102BE000026822F48022026081610249C0038039B8
:102BF0000860704788ED00E000100240FFFFF6EA31
:102C0000FEE700000FB4084B10B504A902AA039810
:102C100000F0F2F8044602A9002000F073FC204600
:102C200010BC5DF814FB0000053500080907090E0B
:102C3000002804DB00F1E02080F80014704700F069
:102C40000F0000F1E02080F8141D704702E008C872
:102C5000121F08C1002AFAD170477047002001E016
:102C600001C1121F002AFBD1704700002DE9FF5F50
:102C700082B00021DDE90430020DDDF840B00343ED
:102C800018D044F61050A2F2FF32424315141198A6
:102C900001281FD0A5EB0B00401C5FEA000A4FF093
:102CA00000064E4FDFF83891B046504615D5CAF1B0
:102CB000000413E0119801244AA3012801D16FEA0E
:102CC0000B010298119AC0E90031C0E9024206B036
:102CD00000F08EB8CBF10000DFE704460021404A47
:102CE000491842EB0450CDE9001012E0E00707D08C
:102CF00032463B4640464946FDF727FB804689461B
:102D000032463B4610461946FDF71FFB06460F4666
:102D10006410002CEAD1DDE90401DDE90023BAF1F9
:102D2000000F06DAFDF711FB42464B46FDF70DFB9F
:102D300005E0FDF77FFB42464B46FDF77BFB044673
:102D40000E460022284BFDF737FD03D84FF0FF3029
:102D5000014607E00022254B20463146FDF746FAA2
:102D6000FDF712FD102409E0002C0ADB0A220023E3
:102D7000FDF721FC039B30321A55641E50EA010214
:102D8000F2D1641C039AC4F111031444119A012A6C
:102D900003D0012208430DD10AE0084304D00020EB
:102DA0004FF0110B119072E7A3EB0B056D1E0DE0B8
:102DB0005B4504DD4FF0000205F1010504E003DA94
:102DC0004FF00002A5F10105002AECD002981199FC
:102DD000C0E90231C0E9004579E700000000144075
:102DE0000000F03F300000000000F0430000E03F32
:102DF00030BCBDE8C09F00002DE9FF4F95B09A465A
:102E0000884606460025EEE1252877D1002427468E
:102E1000F94A0121039400E0044316F8013F203BE6
:102E200001FA03F01042F7D130782A2811D06FF060
:102E30002F033078A0F13002092A16D8039A44F003
:102E4000020402EB820203EB42021044761C039060
:102E5000EFE758F8042B0392002A03DA504244F4B7
:102E60000054039044F00204761C30782E2816D1CA
:102E700016F8010F44F004042A280DD06FF02F0239
:102E80003078A0F13003092B09D807EB870302EB58
:102E90004303C718761CF3E758F8047B761C307898
:102EA0006C280FD006DC4C2817D068280DD06A2873
:102EB00014D104E0742810D07A280FD10DE044F426
:102EC00000140AE044F4801401E044F440147278E1
:102ED000824202D104F58014761C761C3078662874
:102EE0000BD013DC582877D009DC002875D0452892
:102EF000F6D04628F4D047281AD193E118E0632889
:102F000035D0642879D0652812D18BE1702873D030
:102F100008DC6728F1D069286FD06E280DD06F28A3
:102F200006D1ACE073282CD0752874D0782853D003
:102F30005246179990476D1C54E1C4F30250022881
:102F400009D003280DD0D8F8001004280DD00D604A
:102F500008F1040846E1D8F80010EA17C1E9005268
:102F6000F6E7D8F800100D80F2E70D70F0E718F8DA
:102F7000041B8DF8001000208DF80100EB460120A5
:102F800003E058F804BB4FF0FF3061074FF0000139
:102F900002D40DE009F101018946B9420FDA8145F9
:102FA000F8DB1BF809100029F4D108E009F1010150
:102FB00089468142FADB1BF809100029F6D10398F3
:102FC0005346A0EB090721463846179A00F083FACA
:102FD000284400EB090507E044E008E10DE01BF898
:102FE000010B524617999047B9F10109F7D25346A0
:102FF00021463846179AF2E039E00A21C4F302521A
:103000004FF0000B0091022A06D058F8040BC117AC
:10301000032A09D00AE023E008F1070020F00702A4
:10302000F2E80201904605E000B2C117042A01D17E
:1030300040B2C117002906DA0A460021404261EB7E
:1030400002012D2202E0220504D52B228DF8042056
:10305000012203E0E20701D02022F7E7914657E082
:103060000A2100E010214FF0000B00910BE010212D
:103070004FF0000B44F004040827009103E00820FF
:103080004FF0000B0090C4F30252022A05D058F80A
:10309000040B0021032A08D008E008F1070020F003
:1030A0000702F2E80201904603E080B2042A00D150
:1030B000C0B24FF0000922072AD53278702A07D013
:1030C000DDF800C08CF0100C5CEA0B0C05D00EE0B3
:1030D00040228DF80420012208E050EA010306D0C6
:1030E00030238DF804308DF8052002229146009B94
:1030F00083F0080353EA0B030AD150EA010201D11D
:10310000620705D530228DF804204FF001097F1E9B
:103110003278582A04D039A20C920CAA02920BE001
:103120003BA2F9E75B46009AFDF745FA0C9B9B5CD6
:10313000029A521E0292137050EA0102F2D10298D2
:1031400004A9081A00F1200B600702D524F480348A
:1031500000E001275F4502DDA7EB0B0000E0002047
:1031600000EB0B01009003984944401A0390E003E0
:1031700006D453462146179A039800F0ACF905444B
:10318000002706E001A85246C05D179990476D1CC4
:103190007F1C4F45F6DBE0030CD553462146179ABA
:1031A000039800F098F9054404E03020524617993E
:1031B00090476D1C0099481E00900029F5DC08E03E
:1031C0000298029952460078491C0291179990473B
:1031D0006D1CBBF10001ABF1010BF1DC5BE100F018
:1031E00068F90544761C307800287FF40DAE19B0DC
:1031F000284600F05BB90000092801003031323365
:103200003435363738396162636465660000000022
:10321000303132333435363738394142434445460C
:1032200000000000600700D4062708F1070020F026
:103230000700F0E80223804603F0004C5FEA0C0030
:1032400001D097A009E0200501D596A005E0E00790
:1032500001D095A001E0AFF24C001390307823F03C
:10326000004365280CD006DC452809D046281DD02F
:1032700047287FD13BE0662818D067287AD136E00E
:103280000021112F01DB112000E0781CCDE90001A5
:1032900004A90CA8FFF7EAFCDDE90D010C9A4FF038
:1032A000000B07F10109109200914EE04FF0004031
:1032B0000097CDE9011004A90CA8FFF7D7FCDDE9C0
:1032C0000D020C9B0F994FF0000B9146109300924A
:1032D00011B9791C00EB0109B7EB090003D4C0F167
:1032E000FF3B07F10109A9EB0700019042E0012F24
:1032F00000DA01270021112F01DD112000E03846FE
:10330000CDE9000104A90CA8FFF7B0FCDDE90D012F
:103310000C9A00914FF0000BB946109221070FD480
:10332000009A4A4503DA914601E0A9F10109B9F191
:10333000010F05DD109AA9F10101515C3029F4D08B
:10334000B84202DA10F1040F03DA0121CDE90110CD
:1033500010E0002803DC8344A9EB000102E0411CDB
:10336000494500DD8946A0EB0B00401C01904FF061
:1033700000400290200705D40198484502DB4FF039
:10338000FF30019000208DF84B0002980DF14B07A3
:10339000B0F1004F25D002200C902B200D90029808
:1033A00000280CDA404202902D200D9007E00A21FF
:1033B0000298FDF7EAF83031029007F8011D0C99E8
:1033C000481E0C900029F2DC02980028EFD1791EEB
:1033D0000D980870307800F0200040F0450007F8A4
:1033E000020D11A8C01BC01D02901398007800B1F7
:1033F000012000EB0901019801EBE0710298014402
:103400000398401A401E0390E00306D45346214619
:10341000179A039800F05FF805441398007818B1E4
:103420005246179990476D1CE00323D55346214619
:10343000179A039800F04FF805441BE0BBF1000F0A
:1034400007DB0098584504DD1098179910F80B0019
:1034500001E0179930205246904701980BF1010B7B
:10346000401E05F10105019004D12E205246179906
:1034700090476D1CB9F10001A9F10109DEDC05E0FE
:1034800017F8010B5246179990476D1C0299481E78
:1034900002900029F4DC53462146179A03989EE6D1
:1034A0002D0000002B0000002000000030BCBDE813
:1034B000C08F2DE9F041044600251E4617468804BA
:1034C00004D405E039462020B0476D1C641EF9D5B0
:1034D0002846BDE8F0812DE9F041044600251E464E
:1034E0009046C80301D5302700E02027880404D582
:1034F00005E041463846B0476D1C641EF9D52846A4
:10350000BDE8F0810A68531C0B6010707047000022
:103510002DED088B82B0FEF719F9FFF7F7FA7C481A
:10352000C16C41F00401C164C16C01F0040100915F
:10353000C16C41F00101C164C06C00F00100009059
:10354000FFF70AF8FEF7CCFFFFF740F90A2108461B
:10355000FFF736F901226F496FA0FFF73BFA1E21F2
:103560000A20FFF72DF901226A496DA0FFF732FA10
:10357000FFF7A4FA4FF4FA642046FDF7E7FD0F21A8
:103580000020FFF768FA2046FDF7E0FD0F2100203C
:10359000FFF734FA2046FDF7D9FDFFF789FAFFF768
:1035A000DBF8624C9FED628B9FED639B9FED64ABFC
:1035B0009FED65BB6648FDF765FD64216448FDF736
:1035C0000DFD6348FDF703FC20806148FDF75AFDBF
:1035D00064215F48FDF702FD5D48FDF7F8FB608060
:1035E0005B48FDF74FFD64215948FDF7F7FC58484B
:1035F000FDF7EDFBA0805648FDF788FD2088FCF71D
:1036000088FF53EC182BFCF7A0FE53EC192BFCF7AA
:1036100011FF53EC1A2BFCF78AFE53EC1B2BFCF723
:1036200009FFFCF796FFA0606088FCF772FF53EC7F
:10363000182BFCF78AFE53EC192BFCF7FBFE53EC1E
:103640001A2BFCF774FE53EC1B2BFCF7F3FEFCF774
:1036500080FFE060A088FCF75CFF53EC182BFCF7C0
:1036600074FE53EC192BFCF7E5FE53EC1A2BFCF718
:103670005EFE53EC1B2BFCF7DDFEFCF76AFF00211E
:1036800020610846FFF79CF8A068FCF74FFF41EC6B
:10369000100B2F4853EC102B2EA1B030FFF7B2FACD
:1036A0002B4801221B49B030FFF794F91421002068
:1036B000FFF786F8E068FCF739FF41EC100B24486F
:1036C00053EC102B26A1B030FFF79CFA20480122C2
:1036D0001049B030FFF77EF928210020FFF770F87D
:1036E0002069FCF723FF41EC100B194853EC102B19
:1036F0001EA1B030FFF786FA154801220549B03007
:10370000FFF768F9FFF7DAF96420FDF71FFD51E7CD
:10371000001002400000002048454C4C4F000000C3
:10372000574F524C4420212100000000100000207F
:103730006666666666660A400000000000FEAF40EE
:10374000666666666666FA3F333333333333D33F98
:103750003404002058203D20252E326620670000CA
:1037600059203D20252E3266206700005A203D203A
:10377000252E3266206700000148401EFDD17047AB
:1037800090D003001CB502238DF804100A2100918B
:103790008DF80520014601AA0148FDF707FF1CBD71
:1037A0009804002070B5C2B000248DF8041001A95F
:1037B00004E0155D0E19641C7570E4B29C42F8D3E8
:1037C0000A2100915B1C01469BB201AA0248FDF749
:1037D000EDFE42B070BD0000980400200000000023
:1037E00000000000000000000000000000000000D9
:1037F00000000000000000000000000000000000C9
:103800000000000C000C000C000C000C000C000C64
:10381000000C000C000C000C0000000C000C000060
:10382000000000000000001B001B001B001B001B11
:103830000000000000000000000000000000000088
:1038400000000000000000000000801980198019AD
:103850008019C07FC07F80190033C07FC07F0033D4
:103860000033003300330000000000000000001EA1
:10387000003F807580650074003C001E00078005D5
:10388000806580658075003F001E00040004000014
:103890000000007000D840D8C0D880D9007300065E
:1038A000000C801BC036C066C046C0068003000006
:1038B000000000000000001E003F00330033003312
:1038C000001E000CC03CC066806380618063C03E07
:1038D000801C0000000000000000000C000C000C28
:1038E000000C000C000000000000000000000000C0
:1038F0000000000000000000000000008000000147
:103900000003000600060004000C000C000C000C74
:10391000000C000C000400060006000300018000FB
:10392000002000100018000C000C00040006000627
:1039300000060006000600060004000C000C00183B
:10394000001000200000000C002D003F001E00337E
:103950000000000000000000000000000000000067
:103960000000000000000000000000000000000C4B
:10397000000C000C000CC0FFC0FF000C000C000C81
:10398000000C00000000000000000000000000002B
:103990000000000000000000000000000000000027
:1039A000000000000000000C000C000400040008EF
:1039B0000000000000000000000000000000000007
:1039C0000000001E001E00000000000000000000BB
:1039D00000000000000000000000000000000000E7
:1039E0000000000000000000000000000000000CCB
:1039F000000C0000000000000000000300030003B2
:103A00000006000600060006000C000C000C000C6E
:103A10000018001800180000000000000000001E40
:103A2000003F0033806180618061806D806D8061C6
:103A3000806180610033003F001E00000000000034
:103A400000000006000E001E0036002600060006DC
:103A5000000600060006000600060006000600003C
:103A6000000000000000001E003F80738061806144
:103A7000800100030006000C001800300060807F09
:103A8000807F0000000000000000001C003E00637A
:103A900000630003000E000E0003800180018061BE
:103AA0008073003F001E00000000000000000006C0
:103AB000000E000E001E001E0016003600360066C6
:103AC000807F807F000600060006000000000000E6
:103AD0000000007F007F006000600060006E007FDB
:103AE00080638001800180618073003F001E0000C0
:103AF000000000000000001E003F80338061006075
:103B0000006E007F80738061806180618033003F40
:103B1000001E0000000000000000807F807F800108
:103B20000003000300060006000C000C000C000857
:103B30000018001800180000000000000000001E1F
:103B4000003F8063806180610021001E003F806132
:103B5000806180618061003F001E00000000000065
:103B60000000001E003F00738061806180618073EF
:103B7000803F801D800180610073003F001E0000B7
:103B80000000000000000000000000000000000C29
:103B9000000C000000000000000000000000000C0D
:103BA000000C000000000000000000000000000009
:103BB00000000000000C000C0000000000000000ED
:103BC0000000000C000C00040004000800000000CD
:103BD0000000000080008003000E00380060003804
:103BE000000E8003800000000000000000000000C4
:103BF00000000000000000000000807F807F0000C7
:103C00000000807F807F00000000000000000000B6
:103C100000000000000000000000000000400070F4
:103C2000001C000780010007001C0070004000001D
:103C300000000000000000000000001F803FC07175
:103C4000C060C000C00180030007000E000C000C23
:103C50000000000C000C0000000000000000001E2E
:103C6000003F803180718063806F806D806D806FD8
:103C7000806700600032003E001C00000000000071
:103C80000000000E000E001B001B001B001B8031FB
:103C90008031803F803F8031C060C060C0600000E4
:103CA000000000000000007C007E006300630063F1
:103CB0000063007E007E0063806180618063007F1E
:103CC000007E0000000000000000001E003F803168
:103CD00080610060006000600060006000608061E2
:103CE0008031003F001E0000000000000000007C4A
:103CF000007F00638063806180618061806180619A
:103D0000806100630063007E007C00000000000012
:103D10000000807F807F0060006000600060007FA6
:103D2000007F0060006000600060807F807F000096
:103D3000000000000000807F807F00600060006065
:103D40000060007F007F0060006000600060006035
:103D500000600000000000000000001E003F8031F5
:103D600080610060006000608063806380618061CA
:103D70008031803F001E00000000000000008061D4
:103D800080618061806180618061807F807F8061EF
:103D900080618061806180618061000000000000BE
:103DA0000000003F003F000C000C000C000C000C59
:103DB000000C000C000C000C000C003F003F000049
:103DC000000000000000800180018001800180016E
:103DD0008001800180018001806180618073003FEB
:103DE000001E0000000000000000C0608061006351
:103DF00000660066006C0078007C00660066006368
:103E000080618061C0600000000000000000006070
:103E100000600060006000600060006000600060A2
:103E2000006000600060807F807F00000000000074
:103E30000000C071C071C07BC07AC06AC06AC06E29
:103E4000C064C060C060C060C060C060C06000008E
:103E50000000000000008071807180798079807995
:103E6000806D806D806D806580678067806780630E
:103E700080630000000000000000001E003F0033CF
:103E8000806180618061806180618061806180612A
:103E90000033003F001E0000000000000000007E14
:103EA000007F80638061806180618063007F007E2D
:103EB0000060006000600060006000000000000022
:103EC0000000001E003F00338061806180618061DE
:103ED00080618061806580670033803F401E000004
:103EE000000000000000007E007F80638061806130
:103EF0008063007F007E00660063006380618061F4
:103F0000C0600000000000000000000E001F8031B3
:103F1000803100300038001E00078003806180611E
:103F20008031003F001E0000000000000000C0FFC4
:103F3000C0FF000C000C000C000C000C000C000C6E
:103F4000000C000C000C000C000C00000000000035
:103F5000000080618061806180618061806180613A
:103F600080618061806180618073003F001E00007D
:103F7000000000000000C060C060C060803180317F
:103F80008031001B001B001B001B000E000E000EEA
:103F900000040000000000000000C0C0C0C0C0C09D
:103FA000C0C0C0C0C0CC804C804C805E805280526B
:103FB0008073806180610000000000000000C0C0CC
:103FC000806080610033003B001E000C000C001E6E
:103FD000001F003B80718061C0C000000000000035
:103FE0000000C0C08061806100330033001E001EED
:103FF000000C000C000C000C000C000C000C00006D
:10400000000000000000803F803F800100030003AB
:104010000006000C000C0018001800300060807FC3
:10402000807F000000000000000F000F000C000C5B
:10403000000C000C000C000C000C000C000C000C20
:10404000000C000C000C000C000F000F000000180A
:1040500000180018000C000C000C000C00060006F4
:10406000000600060003000300030000000000003B
:10407000001E001E000600060006000600060006E0
:104080000006000600060006000600060006000600
:10409000001E001E0000000C000C001E0012003369
:1040A000003380618061000000000000000000001B
:1040B0000000000000000000000000000000000000
:1040C00000000000000000000000000000000000F0
:1040D0000000000000000000E0FF000000000038C9
:1040E0000018000C000000000000000000000000AC
:1040F00000000000000000000000000000000000C0
:1041000000000000000000000000001F803F8061F0
:104110008001801F803F80618063807FC038000005
:104120000000000000000060006000600060006EA1
:10413000007F807380618061806180618073007F17
:10414000006E000000000000000000000000000001
:104150000000001E003F807380610060006080618D
:104160008073003F001E000000000000000080017E
:10417000800180018001801D803F807380618061AB
:10418000806180618073803F801D0000000000001E
:1041900000000000000000000000001E003F00734F
:1041A0008061807F807F00608071003F001E000082
:1041B000000000000000C007C00F000C000C807F52
:1041C000807F000C000C000C000C000C000C000C9C
:1041D000000C0000000000000000000000000000D3
:1041E000801D803F80738061806180618061807309
:1041F000803F801D80018063007F003E00000060E2
:10420000006000600060006F807F8071806180616D
:104210008061806180618061806100000000000039
:1042200000000006000600000000003E003E000600
:104230000006000600060006000600060006000054
:10424000000000000006000600000000003E003EE6
:10425000000600060006000600060006000600062E
:1042600000060046007E003C000000600060006028
:104270000060806100630066006C007C0076006373
:1042800000638061C0600000000000000000003E8C
:10429000003E0006000600060006000600060006B6
:1042A00000060006000600060006000000000000F0
:1042B0000000000000000000000080DDC0FFC0CE54
:1042C000C0CCC0CCC0CCC0CCC0CCC0CCC0CC00001A
:1042D0000000000000000000000000000000006F6F
:1042E000807F807180618061806180618061806198
:1042F00080610000000000000000000000000000DD
:104300000000001E003F80738061806180618061D9
:104310008073003F001E000000000000000000004D
:1043200000000000006E007F80738061806180610A
:1043300080618073007F006E00600060006000603C
:104340000000000000000000801D803F807380613D
:104350008061806180618073803F801D8001800169
:1043600080018001000000000000000000000067E4
:10437000803F003900300030003000300030003025
:1043800000300000000000000000000000000000FD
:104390000000001E803F80610060007F803F800140
:1043A0008061007F001E000000000000000000008F
:1043B000000800180018007F007F0018001800187F
:1043C000001800180018801F800F00000000000077
:1043D000000000000000000000008061806180613A
:1043E00080618061806180618063807F803D0000AA
:1043F0000000000000000000000000000000C0609D
:10440000803180318031001B001B001B000E000E2C
:104410000006000000000000000000000000000096
:10442000000080DD80DD80DD0055005500550077FF
:1044300000770022002200000000000000000000C1
:10444000000000000000806100330033001E000CFB
:10445000000C001E003300338061000000000000EB
:1044600000000000000000008061806180310033A6
:104470000033001B001B001B000E000E000E001C72
:10448000007C007000000000000000000000C07F01
:10449000C07F800100030006000C00180030C07FC0
:1044A000C07F0000000000008003800700060006B7
:1044B000000600060006000E001C001C000E000690
:1044C00000060006000600068007800300060006BE
:1044D00000060006000600060006000600060006AC
:1044E000000600060006000600060006000600069C
:1044F0000038003C000C000C000C000C000C000EFE
:1045000000070007000E000C000C000C000C000C53
:10451000003C003800000000000000000000000027
:1045200000008038807F004700000000000000008D
:10453000000000000000000000000000000000007B
:104540000102030406070809A0860100400D0300CC
:10455000801A060000350C0040420F0080841E00C7
:1045600000093D0000127A000024F40000366E01BC
:104570000048E801006CDC029845000800000020BB
:10458000340000004C2C0008CC450008340000200A
:10459000C40800005C2C00080B120000DC37000887
:1045A000000000000000000000000000000000000B
:1045B00000000000000000000000000001000000FA
:0C45C000100000000000000000093D0099
:040000050800018D61
:00000001FF
